:020000040800F2
:10000000E007002055020008AF2F0008EF2D000880
:10001000AD2F00082D170008753200080000000001
:10002000000000000000000000000000B32F0008E6
:10003000E117000800000000B12F0008B52F0008EC
:100040006F0200086F0200086F0200086F020008CC
:100050006F0200086F0200086F0200086F020008BC
:10006000E31700086F0200086F0200086F02000823
:100070006F0200086F0200086F0200086F0200089C
:100080006F0200086F0200086F0200080000000005
:100090000000000000000000000000006F020008E7
:1000A0006F0200086F0200086F0200086F0200086C
:1000B000593000086F0200086F0200086F02000844
:1000C0006F0200086F0200086F0200086F0200084C
:1000D0006F0200086F0200086F02000800000000B5
:1000E0006F0200086F0200086F02000800000000A5
:1000F0000000000000000000000000006F02000887
:10010000000000006F0200086F0200086F02000884
:1001100000000000000000000000000000000000DF
:100120006F020008311700086F0200086F02000814
:100130006F02000800000000000000000000000046
:100140000000000000000000000000006F02000836
:100150006F0200086F0200086F0200086F020008BB
:100160006F0200086F02000800000000000000009D
:10017000000000000000000000000000000000007F
:10018000000000006F0200080000000000000000F6
:100190006F02000800F002F800F04CF80AA090E8A6
:1001A000000C82448344AAF10107DA4501D100F032
:1001B00041F8AFF2090EBAE80F0013F0010F18BFB3
:1001C000FB1A43F001031847AC390000CC3900009A
:1001D000103A24BF78C878C1FAD8520724BF30C873
:1001E00030C144BF04680C60704700000023002445
:1001F00000250026103A28BF78C1FBD8520728BF37
:1002000030C148BF0B607047662903F04E846429F3
:1002100000F0CC80002070471FB503F03CFC00F0DC
:1002200071FC04000020002103F012F9E0601FBD02
:1002300010B510BD00F062FD1146FFF7EDFF03F0B1
:1002400049F800F080FD03B4FFF7F2FF03BC00F0B3
:10025000C3FD00000948804709480047FEE7FEE764
:10026000FEE7FEE7FEE7FEE7FEE7FEE7FEE7FEE766
:1002700004480549054A064B704700003D30000818
:1002800095010008E0010020E0070020E0030020C5
:10029000E003002053EA020C00F069802DE9F04BE6
:1002A0004FF00006002B1FBFB3FA83F503FA05F4E5
:1002B00024FA05F65E4012BF1643B2FA82F502FA3E
:1002C00005F4C5F120051EBF22FA05FC44EA0C0422
:1002D000203556EA044C4FEA144418BF641C4FF012
:1002E00000084FF00009904271EB030C39D300294C
:1002F00019BFB1FA81F701FA07F6B0FA80F700FAF0
:1003000007F6C7F120071EBF20FA07FC46EA0C06D5
:100310002037B6FBF4FCA7EB0507103F07F01F0BD7
:10032000CBF120060CFA0BFB2CFA06F644BFB346C1
:100330000026202FA4BF5E464FF0000B5BEA060CA0
:1003400008BF4FF0010B19EB0B09ABFB027C48EB2C
:100350000608C01B06FB02CC0BFB03CC71EB0C01A7
:10036000C1E70B46024641464846BDE8F08B13B54F
:100370004FF000004FF00001AFF30080BDE81C40DB
:10038000704700000FB41CB5074B06AA7B446946B2
:100390000090059800F099FB0020694600F0A8FB4A
:1003A0001CBC5DF814FB0000610700002DE9F04162
:1003B0000646002410687529314616A510D0AFF303
:1003C0000080002802DA404213A507E031688A075E
:1003D00001D512A502E0490704D511A5012401E0C9
:1003E000AFF3008000210A2206F1240709E0B0FBE8
:1003F000F2FCB0FBF2F302FB1C00303078541846DC
:10040000491C0028F3D123462A463046BDE8F04176
:1004100000F0EDB8000000002D0000002B000000EF
:10042000200000002DE9F05F894604464FF0000AE5
:10043000DFF824B1FB44C0F820A02046E1688847DB
:1004400000287DD0252806D0D4E901219047206AD4
:10045000401C2062F1E700255F462046E16888479E
:100460002028064607DB312E05D2B81910F8200CDB
:1004700008B10543F1E7A80701D525F00405C4F844
:100480001CA00027C4F818A02A2E09D0304602F07C
:100490001AFF38B304EB8708303EC8F8186019E03B
:1004A00059F8041B204604EB87029161E1688847F4
:1004B000012F064618D1E069002820DA25F0200532
:1004C0001DE0D8F8180000EB800006EB4000303843
:1004D000C8F818002046E1688847064602F0F3FE97
:1004E0000028EED1012F0AD02E2E08D12046E16837
:1004F00088477F1C0646022F45F02005C4DBA06913
:10050000002803DA404245F00105A061E80701D068
:1005100025F01005A6B1A6F14100192802D8203611
:1005200045F400654A463146204625604D46FFF7B2
:100530006BFE60B1012807D0ED1D25F0070000E03B
:1005400007E000F1080978E705F1040975E730468E
:100550007AE7206ABDE8F09F9636000010B5431C8C
:1005600002E010F8011B71B18107FAD14FF001329E
:1005700002C88C1A8C4314EAC211F9D0C01A0A06B8
:1005800003D0C01E10BDC01A10BD0A0401D0801EC9
:1005900010BD0902FCD0401E10BD4FF0000200B596
:1005A000134694469646203922BFA0E80C50A0E896
:1005B0000C50B1F12001BFF4F7AF090728BFA0E844
:1005C0000C5048BF0CC05DF804EB890028BF40F810
:1005D000042B08BF704748BF20F8022B11F0804F52
:1005E00018BF00F8012B70477047704770472DE91E
:1005F000F0470D4699469246044600F124080168EA
:10060000880604D5E06921F01001216000E0012096
:10061000A84201DD471B00E00027A1697A1902EB1F
:100620000900081AA0612078C00602D42046AFF362
:100630000080002608E0D4E901211AF8060090475E
:10064000206A401C761C20624E45F4DB2078C006F0
:100650000AD52046AFF3008006E0D4E9012130201E
:100660009047206A401C2062381EA7F10107F4DC85
:1006700007E0D4E9012118F805009047206A401CE2
:100680002062281EA5F10105F3DC2046AFF30080AF
:100690002078000602D50220BDE8F0870120FBE7A4
:1006A00070472DE9FF4F0C461E464FF0FF378BB0C9
:1006B000D2E90001DDF860800A908A46C1F30A554C
:1006C00005B93D46002108464FF00000BAF1000F81
:1006D00000F4400005DA00EB80004FF4400101EA2D
:1006E00050004FEA9059B9F1010F00DDB9460A9860
:1006F00050EA4A000ED044F61050A5F2FF354543AB
:100700002F14B8F1000F1ED07542291E1EDDC9F14D
:1007100000021CE0B8F1010F4FF0000001D03021C1
:1007200003E0F24305E02154401CB042FBDB3046BD
:100730000022002121540B99C1F80880C1E9002052
:100740000FB0BDE8F08FBD1B6D1CDEE74A4600DA36
:10075000694206A800F060FA06AB93E8070003AB15
:1007600083E8070050460A9900F03DFB8DE807003A
:10077000A0F500501F3800900398002D0ADD42F2CA
:100780001F014A460844002303A90390684600F06D
:10079000A6FD09E0A0F500504A461F38002303A932
:1007A0000390684600F0B0FD8DE807000004000CDF
:1007B00003D04FF0FF30410800E01046B8F1000FC1
:1007C00003D00022009215461EE0751E05D400F0ED
:1007D0009DF9303262556D1EF9D5B34601220843AA
:1007E00002D000227F1C04E02078302801D10022B2
:1007F0007F1E002A099784D01DE0112D07DA00F032
:1008000085F9303262556D1C50EA0102F5D108437A
:1008100002D00098C8B10EE00021681E05E0235CFC
:10082000625C63542254401E491C8142F7DBAB4694
:10083000A81B401E0990002004F80B000B98099A91
:10084000C0F80880C0E9002B7AE711264FF00008B5
:1008500057E72DE9F04F88460446D21D22F00701E4
:1008600091B0D1E90001CDE90A0102F004FD024690
:100870000B98C00F01D02D2007E02068810701D51B
:100880002B2002E0202101EAC000032A099001D0B8
:10089000072A05DB03464146204600F07DF90BE1BF
:1008A0002078800601D5E06900E00620B8F1650FE8
:1008B000814606D0B8F1660F18D0B8F1670F70D135
:1008C00031E00020B9F1110F009001DB112301E0AC
:1008D00009F101030AAA01A90CA8FFF7E2FEDDE96C
:1008E0000C70002609F10105834647E001204B46C4
:1008F00000904FF000470AAA01A90CA8FFF7D1FE0B
:10090000DDE90DB00C995D46002610B909F1010032
:100910000D18B9EB050003D4C0F1FF3609F101054C
:10092000A5EB09002BE0B9F1010F01DA4FF0010945
:100930000020B9F1110F0090484601DD112300E0BD
:1009400003460AAA01A90CA8FFF7ABFEDDE90C706B
:100950004D4600268346207800070AD4AB4500DACE
:100960005D4601A8012D04DD411911F8011C302953
:1009700007D04F4502DA17F1040F04DA012082464E
:100980000FE06D1EEEE7002F02DCED1B3E4403E09E
:10099000781CA84200DD7D1CB81B00F1010A4FF055
:1009A00000472078000703D4AA4501DB4FF0FF3A47
:1009B0000021B7F1004F0DF143088DF8431024D00A
:1009C00002202B23002F01DA7F422D230A21021E51
:1009D000A0F1010000DC5FB197FBF1FC97FBF1F2A5
:1009E00001FB1C7C17460CF1300C08F801CDEEE73A
:1009F000A8F1010003702188090501D5452100E017
:100A00006521A0F1010800F8011C09980FA9A1EBCC
:100A10000807FF1D00B10120411901EBEA70A1692F
:100A20003844081A401EA0612078C00602D420462F
:100A3000AFF30080099828B1D4E901219047206ADA
:100A4000401C20622078C00622D52046AFF30080EB
:100A50001EE0002E04DBB34502DD01A8805D00E04E
:100A60003020D4E901219047206A401C2062761C86
:100A7000AAF101005FEA000A0AD100F043F8C06859
:100A80000168405CD4E901219047206A401C206243
:100A9000281EA5F10105DCDC07E0D4E9012118F8E6
:100AA000010B9047206A401C2062381EA7F1010705
:100AB000F3DC2046AFF30080032011B041E60000D4
:100AC00001694A1C02610878704700B58FB0CDE912
:100AD00001310021059105497944CDE90310114602
:100AE0006846FFF79FFC0FB000BD0000E5FFFFFF69
:100AF0000A6802F8010B0A6070470000004870475E
:100B00007C010020004870479C01002030B5B0F106
:100B10000A024FEA900E71F100034EEA817EB0EBBB
:100B20000E0061EB91014FEA101E4EEA017E10EBC0
:100B30000E0041EB11114FEA102E4EEA016E10EB40
:100B40000E0041EB11214FEA104E4EEA014E10EB20
:100B50000E0041EB1141401841F100014FEAD00075
:100B600040EA41704FEAD10110EB80054FEA810461
:100B700044EA907444EB01046D1944EB0404521BE5
:100B8000A3414FF0000348BF0A3200D530BD401CDE
:100B900041F1000130BD00002DE9F0411F4604463F
:100BA00003260168072A01F4006004DB08B116A5DA
:100BB00005E016A503E008B115A500E015A521F094
:100BC00010002060A069C01EA0610FB1401EA0618E
:100BD0002046AFF300804FB1D4E901213846904759
:100BE000206A401C2062C01C206206E0206AFAE7EE
:100BF000D4E9012115F8010B9047761EF8D2204662
:100C0000AFF30080BDE8F0814E414E006E616E0092
:100C1000494E4600696E66002DE9F047814616464A
:100C20008AB0354878440DC88DE80D0032487844C4
:100C3000801C03AC0DC884E80D0041F69B300844CD
:100C4000372190FBF1F290FBF1F5A5F1800501FB56
:100C500012041B3C02D56442012000E00020DFF8B2
:100C600098A080460027FA44AAF1BE0A0EE0E007E9
:100C70000AD03246684607EB470101230AEB81019F
:100C800000F042FB8DE8070064107F1C002CEED1C1
:100C9000194F7F44AE3F19E0E80715D007EB041069
:100CA0000DF1180A90E80E008AE80E00C068F042C4
:100CB00001D1981908903246012306A903A800F033
:100CC00023FB03AB83E807006D10641C002DE3D108
:100CD0004FF0010332466946B8F1000F03A802D075
:100CE00000F0FDFA01E000F00FFBC9E90001C9F8CE
:100CF00008200AB0BDE8F087342F00007546FFF7E2
:100D0000FDFEAE4605006946534620F007008546C5
:100D100018B020B5FFF7ACFABDE820404FF0000650
:100D20004FF000074FF000084FF0000B21F00701D3
:100D3000AC46ACE8C009ACE8C009ACE8C009ACE816
:100D4000C0098D46704710B50446AFF300802046B9
:100D5000BDE81040FFF777BA4FF0013C50F8042B84
:100D600051F8043B9A4221D1A2EB0C03934313EABE
:100D7000CC1317D150F8042B51F8043B9A4215D1EB
:100D8000A2EB0C03934313EACC130BD150F8042BC2
:100D900051F8043B9A4209D1A2EB0C03934313EAA6
:100DA000CC13DBD04FF00000704700BFD01A01BA5F
:100DB000B1FA81F101F0180122FA01F0CB40C1F142
:100DC0002001DBB2C0B2C01A2CFA01F3D11A914350
:100DD00011EAC311E6D1704701491820ABBEFEE706
:100DE0002600020070475FEA400C08BF91F0000F38
:100DF0004FEA8C234FEAC12243EA51514FEA1C507B
:100E000018BF00F5F0404FEA300018BF41F0004134
:100E10005FEA6C5C00F02980BCF1FF3F08BF40F046
:100E200080407047130C06BF12044FF0100C4FF0B7
:100E3000000C130E04BF12020CF1080C130F04BFB8
:100E400012010CF1040C930F04BF92000CF1020C80
:100E5000D30F04BF52000CF1010C11464FF00002F9
:100E6000A0F11F00A0EB0C00704711F0004F08BF6D
:100E7000704731F000413FF4D5AF0B0C06BF0904B9
:100E80004FF0100C4FF0000C0B0E04BF09020CF1D8
:100E9000080C0B0F04BF09010CF1040C8B0F04BFED
:100EA00089000CF1020CCB0F04BF49000CF1010CBE
:100EB000CCF12003A0EB0C0022FA03F302FA0CF2AF
:100EC00041EA030100F10100704720F07F4C80EA05
:100ED000030023F07F47ACEB070303F57C5300F0DE
:100EE000004003F1FF032DE980494FEA154B09B497
:100EF0004FEA144325EA0B4E24EA03480FF2042676
:100F000006EB132749083E785FEA320203FB0667C7
:100F1000C7F5000707FB06F64FEA54374FEAD646F7
:100F200006F1020607FB066CCCF1005C4FEA1C4799
:100F30002CEA074C07FB06F40CFB06F504EB154600
:100F40004FEA961634BF00204FF000404FEAD137E9
:100F500006FB07FC4FEA1C4C0CFB0BF7D21B03FBF8
:100F60000CF761EB07010CFB0EF7B0EB074072EBDF
:100F700017420CFB08F734BFA2EB0742B2EB074263
:100F800061EB17414FEA0C444FEA910706FB07FC5F
:100F90004FEA1C4C0CFB0BF7B0EBC74072EB57321F
:100FA00003FB0CF734BFA2EBC742B2EBC74261EBC5
:100FB00057310CFB0EF7B0EBC70072EB57720CFB0E
:100FC00008F734BFA2EBC702B2EBC70261EB57715F
:100FD000039F4FEA816141EA921104EBCC044FEA8E
:100FE000D1374FEA826206FB07FC42EA90124FEAD1
:100FF00080604FEA1C4C0CFB0BF7D21B03FB0CF779
:1010000061EB07010CFB0EF7B0EB074072EB1742E8
:101010000CFB08F734BFA2EB0742B2EB074261EBCF
:1010200017414FEA8C554FEA910704EB9C2406FBCD
:1010300007FC4FEA1C4C0CFB0BF7B0EBC74072EB04
:10104000573203FB0CF734BFA2EBC742B2EBC742E7
:1010500061EB57310CFB0EF7B0EBC70072EB577228
:101060000CFB08F734BFA2EBC702B2EBC70261EB7F
:10107000577115EB4C254FEA816141EA92114FEA15
:1010800082624FEAD13742EA901206FB07FC44F134
:1010900000044FEA80604FEA1C4C0CFB0BF7D21B9C
:1010A00003FB0CF761EB07010CFB0EF7B0EB0740FD
:1010B00072EB17420CFB08F734BFA2EB0742B2EB0E
:1010C000074261EB174115EB1C154FEA813141EAEC
:1010D00092414FEA823242EA90424FEA80304FEA30
:1010E0000C7644F1000448EA03434EEA0B484FF003
:1010F000000EB2EB080C71EB030724BF62463946C1
:101100004EEB0E0E4FF0000B0018524149414BEBD5
:101110000B0BB2EB080C71EB03077BF1000B24BF48
:10112000624639464EEB0E0E4FF0000B001852414E
:1011300049414BEB0B0BB2EB080C71EB03077BF156
:10114000000B24BF624639464EEB0E0E51EA0207F1
:1011500018BF46F0010616EB0E7655F1000254F169
:10116000000103D5BDE88901BDE80088BDE889011B
:10117000BDE80048B619524141EB0101A3F101035A
:10118000704780807F7E7D7C7B7A797877767675F4
:101190007473727171706F6E6E6D6C6C6B6A6A696C
:1011A0006868676666656464636362616160605F06
:1011B0005F5E5E5D5D5C5C5B5B5A5A59595858577F
:1011C00057565655555554545353525252515150E7
:1011D00050504F4F4F4E4E4D4D4D4C4C4C4B4B4B3A
:1011E0004A4A4A4949494848484747474746464680
:1011F00045454544444444434343434242424241BB
:101200004141002B9C4630D477002BD01CB54FEACF
:10121000370703B44FF010004FF01001BAF1000F80
:1012200006D0BCF1000FDCBF40F0080040F0080120
:101230004FF000000FBCBDE810400BF1010BBBF1FB
:10124000010F08BF5FEA170722BF12F1010211F177
:1012500001014FF0004143F1000300F0004043EA78
:1012600000007047F9D35708D0E746EA064613F165
:10127000400F4FEA16461FDD13F1200FDFBF164364
:101280000A46002120335B42BED0C3F1200746EA64
:10129000064602FA07F74FEA164646EA0706C3F182
:1012A000200722FA03F201FA07F721FA03F14FF0BF
:1012B000000342EA0702A7E746EA020646EA0646B4
:1012C0004FEA164646EA0106BCBF46EA0646360C19
:1012D0004FF000034FF000024FF0000194E72DE9BA
:1012E000804C9A46934670B491E8380007C831EABA
:1012F000400C48BF34EA430C03D5FFF7E6FDFFF787
:1013000080FFF0BCBDE8008C2DE9804C9A469346E6
:1013100070B491E8380007C810F0804F08BF13F090
:10132000804F03D100F005F8FFF76BFFF0BCBDE87C
:10133000008C20F07F4780EA030023F07F4C07EB0E
:101340000C03A3F57C5300F00040A3F1FE0392F0E0
:10135000000F00F0B38095F0000F00F077802DE9CA
:1013600001494FEA11404FEA144621EA004800FBC8
:1013700006FC24EA064708FB06F607FB08F800FB14
:1013800007F718EB06484CEB164C4FEA124B18EBDC
:1013900007484FEA15464CEB174022EA0B4E0BFB71
:1013A00006FC25EA06470EFB06F607FB0EFE0BFBC6
:1013B00007F71EEB064E4CEB164C4FF000061EEBEB
:1013C000074E4CEB174B18EB0B0840F1000018EBE5
:1013D0000E0B58EB000840F100008F1A4FF000018F
:1013E0003CBFC943661B14BFB5EB040C00213CBFD6
:1013F000C943F61B4FEA17444EEA8E0E27EA04450E
:101400004FEA1C4704FB07622CEA074C05FB07F771
:101410000CFB05F604FB0CFC16EB074642EB1742EF
:1014200016EB0C4642EB1C421BEB060658EB020285
:10143000414146EA9E0601D5BDE80189B6195241EF
:1014400041EB0101A3F10103BDE801894FEA144515
:101450004FEA114724EA054621EA074C05FB07F449
:1014600006FB07F70CFB06F105FB0CFC11EB074133
:1014700044EB17444FEA124711EB0C4144EB1C4478
:1014800022EA074C05FB07F206FB07F70CFB06F602
:1014900005FB0CFC16EB074642EB174216EB0C461D
:1014A00042EB1C456A1854F1000148BF7047B61959
:1014B000524141EB0101A3F10103704795F0000F88
:1014C00037D04FEA11424FEA144721EA024624EA94
:1014D000074C02FB07F106FB07F70CFB06F402FBC7
:1014E0000CFC14EB074441EB17414FEA154714EB92
:1014F0000C4441EB1C4125EA074C02FB07F506FBB7
:1015000007F70CFB06F602FB0CFC16EB074645EB57
:10151000174516EB0C4645EB1C42121951F1000120
:1015200048BF7047B619524141EB0101A3F10103D5
:1015300070474FEA14454FEA114724EA054621EA6D
:10154000074C05FB07F106FB07F70CFB06F24FF013
:10155000000605FB0CFC12EB074241EB174112EBB6
:101560000C4251EB1C4148BF7047921841EB0101FE
:10157000A3F10103704710B50146806B026C12F0B5
:10158000500F05D0026CD20626D500F0D7F910BD59
:10159000016C41F40071016401688A6812F0405FD7
:1015A00017D1027EAAB9CA6A12F4700F02D08A68F3
:1015B00052050ED44A6822F020024A60016C21F4E0
:1015C00080710164016CC90403D4016C41F0010114
:1015D000016400F0B1F910BD806BC26CBDE8104031
:1015E0000846104710B5806B40210164416C41F002
:1015F0000401416400F0A2F910BD10B5806B00F049
:101600009CF910BD464910B54A6822F440324A6040
:101610004A6843681A434A6001684A6822F4807243
:101620004A6001684A68036942EA03224A60016825
:101630004A6822F040724A6001684A6883681A4327
:101640004A6001688A6822F400628A6001688A68D8
:10165000C3681A438A60816A6FF07062D142016880
:101660008A6822F070628A6001688A680CD0836A96
:101670001A438A6001688A6822F040528A600168D1
:101680008A68C36A1A4301E022F040528A60016806
:101690008A6822F002028A6001688A68037E42EA50
:1016A00043028A6090F82010002901684A680FD030
:1016B00042F400624A6001684A6822F460424A606B
:1016C00001684A68174C436A04EB43331A4301E04C
:1016D00022F400624A600168CA6A22F47002CA6297
:1016E0000168CA6A838B104C04EB03531A43CA6225
:1016F00001688A6822F400728A6001688A6890F83A
:10170000303042EA43228A6001688A6822F48062AB
:101710008A6001688A68406942EA8020886010BD5A
:101720000023014000E0FFFF0000F0FFFEE70000A3
:10173000014800F0AFBA00001C0100200168182326
:10174000CAB2103AB2FBF3F2054B6FF30901032A58
:101750009B5CC36500D9091D816508467047000080
:10176000C63A000810B5014600208B698A6A4FF01E
:10177000C07453B1B3F5005F15D072B1012A0CD01B
:10178000022A0AD0032A09D104E01AB1012A06D09C
:10179000022A03D1C96AC90100D5012010BDC96A56
:1017A000A142FAD010BD002AF7D0012AF2D0022AB5
:1017B000F3D0032AF3D010BD30B50468256825F4B2
:1017C00080252560046863608368402B036803D02C
:1017D00099600068C26030BD9A600068C16030BD29
:1017E0007047042000F0F0BB7047000078B500247B
:1017F000009490F83C20012A19D0012280F83C2066
:101800000A6807230568092A13D9EE680A3A02EB29
:10181000420293409E43EE600B788A680A3B03EBDA
:1018200043039A400368DD682A43DA6010E002202F
:1018300078BD2E6902EB420293409E432E610B78E5
:101840008A6803EB43039A4003681D692A431A61BF
:101850004A681F23072A13D205686E6B521E02EBDB
:10186000820293409E436E630B790A885B1E92B29C
:1018700003EB83039A4003685D6B2A435A6327E0B6
:1018800005680D2A12D22E6BD21F02EB8202934002
:101890009E432E630B790A88DB1F92B203EB83030E
:1018A0009A4003681D6B2A431A6311E0EE6A0D3AF1
:1018B00002EB820293409E43EE620B790A880D3B55
:1018C00092B203EB83039A400368DD6A2A43DA622B
:1018D000164B0568144A9D4206D10D68122D03D19E
:1018E000556845F48005556005689D4218D10B6820
:1018F000102B01D0112B13D1536843F40003536014
:10190000096810290CD10A490A4A0968B1FBF2F1A9
:1019100001EB8101490000E0491E00910029FBD143
:1019200080F83C40002078BD0023014000200140A9
:101930002400002040420F00704770477047006845
:10194000C06C704770B504004FF0000503D0206CE8
:10195000002610B107E0012070BD204600F01CF801
:10196000666484F83C60206CC00610D4206C20F4BF
:10197000885040F0020020642046FFF743FE666472
:10198000206C20F0020040F00100206400E00125FE
:1019900084F83C60284670BD10B586B0044614211A
:1019A0006846FEF7FAFD1149206888421CD11048AC
:1019B0000021026842F480720260006800F48070C6
:1019C00005900B481438026842F00102026000687A
:1019D00000F001000590102000900320CDE90101E6
:1019E0006946044800F0FCFA06B010BD0020014032
:1019F00044380240000002402DE9F04104460068EE
:101A00000D4681684FF0000749050BD58068C00579
:101A100008D5206C40F02000206484F83C70012040
:101A2000BDE8F08100F0DEFB064613E0681C11D033
:101A300025B100F0D7FB801BA8420BD920680068B5
:101A4000800707D4206C40F00400206484F83C70C8
:101A50000320E5E7206800688007E7D521686FF07C
:101A600012000860206C40F40070206420688168D7
:101A700011F0405F13D1217E89B9C16A11F4700F52
:101A800002D0806840050AD4206C20F48070206465
:101A9000206CC00403D4206C40F0010020640020BE
:101AA000BEE7000018B50021009190F83C20012A03
:101AB00007D0012280F83C2002689368DB0702D03F
:101AC00011E0022018BD936843F001039360244A9B
:101AD000244B1268B2FBF3F202EB420200E0521E0A
:101AE0000092002AFBD102689368DB072ED0036CBA
:101AF00040F20164A34343F48073036453685B05BD
:101B000005D5036C23F4005343F480530364036C42
:101B1000DB0404D5436C23F00603436400E0416416
:101B200080F83C1010496FF0220313604968006888
:101B3000C90602D00D49884210D1816811F0405F7A
:101B40000CD1816841F08041816007E0016C41F077
:101B500010010164416C41F001014164002018BD95
:101B60002400002040420F000023014000200140DB
:101B7000F8B5044600200E46009094F83C10012968
:101B800007D0012184F83C1021688B68DB0702D064
:101B900011E00220F8BD8B6843F001038B603649E9
:101BA000364B0968B1FBF3F101EB410100E0491E3E
:101BB00000910029FBD121688B68DB0503D58B6878
:101BC00023F480738B6021688B68DB0749D0236C1A
:101BD00040F20165AB4343F48073236449684905CF
:101BE00005D5216C21F4005141F480512164216C10
:101BF000C90404D5616C21F00601616400E06064F1
:101C000084F83C00A16B1F481D4DC863A16B1E48A2
:101C10000864A16B1D48C86421686FF02200086049
:101C20002068416841F0806141602068816841F42A
:101C3000807181602168134632464C31A06B00F000
:101C400063F96868C006206802D01149884210D143
:101C5000816811F0405F0CD1816841F08041816062
:101C600007E0206C40F010002064606C40F0010040
:101C700060640020F8BD00002400002040420F00F6
:101C80000023014077150008FB150008E515000842
:101C9000002001402DE9F84304464FF00009CDF83B
:101CA000009063484FF41651A56D0068B0FBF1F742
:101CB0002E6894F85C10082000FA01F131420FD030
:101CC00021680A6852070BD50A6822F004020A60EC
:101CD00094F85C108840A860606D40F00100606579
:101CE00094F85C104FF0010808FA01F0304208D077
:101CF00021684969090604D5A860606D40F00200BA
:101D0000606594F85C1004208840304208D0216857
:101D10000968890704D5A860606D40F0040060651B
:101D200094F85C1010208840304218D0216809686F
:101D3000090714D5A86020680168490304D5006824
:101D4000000308D5A16C07E00168C90503D4016848
:101D500021F008010160216C09B12046884794F800
:101D60005C1020208840304231D021680968C906C3
:101D70002DD5A86094F8350005282068016806D0A4
:101D8000490347D5006800031DD4616C1CE021F0B5
:101D9000160101602068416921F080014161206CD9
:101DA00008B9A06C20B12068016821F00801016029
:101DB00094F85C103F208840A86084F8358084F84F
:101DC0003490216D1FE0E16B09B120468847606DBA
:101DD00000282BD0606DC00714D0052084F8350092
:101DE0002068016821F0010101600098401C00900A
:101DF000B84203D820680068C007F6D184F835805F
:101E000084F83490E16C002910D001B02046BDE880
:101E1000F04308470168C905D5D4016821F01001D5
:101E2000016084F8358084F83490CCE7BDE8F8830D
:101E3000240000202DE9F041044600F0D3F90646C5
:101E40005CB1022084F83500002584F83450206805
:101E5000016821F0010101600DE00120BDE8F08181
:101E600000F0C0F9801B052805D9202060650320FB
:101E700084F83500F2E720680068C007F0D12268D6
:101E8000116820480140D4E901031843D4E903361E
:101E90003343184363691843A3691843E36918433C
:101EA000236A18430843616A042903D1D4E90B1358
:101EB00019430843106020684069666A20F00701F2
:101EC00030460E43012704280CD1A06A0643E06A7D
:101ED00040B12046FFF746FC20B14020606584F801
:101EE0003570BAE7206846612046FFF727FC94F872
:101EF0005C203F2191408160656584F83570002049
:101F0000ACE700003F8010F02DE9F0410446866DFB
:101F100090F83400002501280DD0012084F8340009
:101F200094F835700020012F07D084F83400022582
:101F30002846BDE8F0810220FBE7022784F83570CF
:101F400060652046FFF738FC94F85C103F2088401D
:101F5000B0602068016841F016010160206C20B17A
:101F60002068016841F0080101602068016841F0C3
:101F700001010160DCE7000070B5044600F032F9B1
:101F80000546601C02D004480078044400F02AF999
:101F9000401BA042FAD370BD2800002010B5084CA9
:101FA0000421204600F00CF9012808D1054900223F
:101FB000C8612046BDE81040082100F00EB910BDF0
:101FC0000000024000000020044910B50A680242E7
:101FD00002D00860FFF7E2FF10BD0000143C014092
:101FE0002DE9F84FDFF8B8A1002201240AF1040B13
:101FF00003254FF00F090BF1040E00BF0B6804FA24
:1020000002F63340B34273D10F7907F00307012F73
:1020100001D0022F16D187684FEA420805FA08FC62
:1020200027EA0C07D1F80CC00CFA08FC4CEA070CA4
:10203000C0F808C04768B7430E79C6F3001696404B
:102040003E4346600E79F643B6070DD0C76856008A
:1020500005FA06FC27EA0C07D1F808C00CFA06FCC2
:102060004CEA070CC0F80CC00E7906F00306022EED
:1020700010D1D60800EB8608D8F8206057074FEA41
:10208000D76C09FA0CF7BE430F6907FA0CF7374310
:10209000C8F8207006684FEA420C05FA0CF7BE43F8
:1020A0000F7907F0030707FA0CF7374307604E680C
:1020B00016F4403F6DD03B4E376847F48047376099
:1020C000366822F0030706F480460096364E07EB8A
:1020D000060CDCF8086897073F0F09FA07F826EAAC
:1020E0000806DFF8C880404503D14FF000081EE025
:1020F0004FE0DFF8BC80404502D14FF0010816E008
:10210000DFF8B080404502D14FF002080FE0DFF861
:10211000A880404502D14FF0030808E0DFF89C801A
:10212000404502D14FF0040801E04FF0070808FADB
:1021300007F848EA0608CCF80888DAF8006057463D
:10214000D1F804C09E435FEACC3C00D51E433E60FC
:10215000DBF800605F46D1F804C09E435FEA8C3C28
:1021600000D51E433E60DEF800607746D1F804C01B
:102170009E435FEACC2C00D51E433E60084F0C37CF
:102180003E68D1F804C09E435FEA8C2C00D51E4304
:102190003E60521C102AFFF431AFBDE8F88F0000FA
:1021A000003C014044380240003001400000024041
:1021B0000004024000080240000C024000100240EF
:1021C0000069084000D001207047426921EA0203FB
:1021D0000A4043EA0241816170470AB18161704758
:1021E0000904FBE7014880687047000028000020D0
:1021F00002488168027811448160704728000020FD
:102200000B4810B5016841F400710160016841F4A8
:1022100080610160016841F480710160032000F079
:102220006FF8002000F006F800F024F8002010BD40
:10223000003C024070B50D4D04464FF47A71287889
:10224000B1FBF0F00A490968B1FBF0F000F00CFBBB
:1022500048B9102C07D200222146501E00F030F859
:1022600000206C6070BD012070BD000028000020BF
:10227000240000200A4808B5016841F4804101604B
:10228000006800F4804000900548001F016841F09C
:1022900080510160006800F08050009008BD00008F
:1022A00044380240002809DB00F01F020121914060
:1022B0004009800000F1E020C0F8001170470000E4
:1022C000F0B40E4B1B680C46C3F30223C3F10705A1
:1022D000042D00D90425191D072901D2002300E08F
:1022E000DB1E012606FA05F1491E214099409E4059
:1022F000761E16403143F0BC00F0D5BF0CED00E077
:10230000064900F0070208684FF6FF03184040EA4C
:102310000220034A10430860704700000CED00E003
:102320000000FA052DE9F0470E46050065D0DFF8FC
:102330001481D8F80000F7B200F00700B04207D2CD
:1023400088F80070D8F8000000F00700B04254D1BF
:1023500028683D4C810712D5400703D5206840F41A
:10236000E05020602878000703D5206840F46040E2
:1023700020602068A96820F0F000084320602878D9
:10238000C0072DD0304968680839012812D00228CA
:1023900013D0032811D00968890700292DDA216894
:1023A00021F0030101432160FFF71CFF814641F248
:1023B000883A0EE009688903EFE709688901ECE7CC
:1023C000FFF710FFA0EB0901514502D90320BDE83A
:1023D000F0872068696800F00C00B0EB810FEFD146
:1023E000D8F80010404601F00701B14207D9077044
:1023F000006800F00700B04201D00120E7E728782C
:10240000400705D52068E96820F4E05008432060C3
:102410002878000706D52068296920F4604040EA42
:10242000C100206000F038F82168084AC1F30311A8
:10243000515CC8400649086006480068FFF7FAFE8C
:102440000020C4E7003C024008380240AE3A0008D1
:10245000240000202C000020044805490068096879
:10246000044AC1F38221515CC84070472400002017
:1024700008380240BE3A0008044805490068096867
:10248000044AC1F34231515CC84070472400002027
:1024900008380240BE3A0008154810B5006810F030
:1024A0000C02144813D01449042A0FD0082A0ED164
:1024B0000F4C241F2268236802F03F025B0207D5FD
:1024C0002068C0F38810A0FB010106E0084610BD9B
:1024D0002168C1F38811A1FB00010023FDF7DAFE9A
:1024E0002168C1F30141491C4900B0FBF1F010BD66
:1024F000083802400024F40040787D012DE9F84FAF
:1025000004006ED02078DFF84C93C007A9F10405D1
:102510004AD009F104000168C1F38101012908D002
:102520000068C0F3810002280AD1D9F800004002F7
:1025300006D52868800337D560680028E1D033E0ED
:102540006068B0F5803F10D0B0F5A02F286810D09B
:1025500020F480302860286820F48020286060689B
:10256000A8B1FFF73FFE06460DE0286840F4803032
:10257000F4E740F480202860F7E700BFFFF732FE61
:10258000801B642873D828688003F7D50CE0FFF718
:1025900029FE064605E000BFFFF724FE801B6428E5
:1025A000F0D828688003F7D42078DFF8AC82800761
:1025B0004FF0000A3ED5A748001D016811F00C0F2E
:1025C00008D00068C0F3810002280BD1D9F80000C0
:1025D000400207D42868800716D5E068012800D19A
:1025E00012E033E1E068B8B10120C8F80000FFF75D
:1025F000F9FD064605E000BFFFF7F4FD801B022849
:10260000C0D828688007F7D52868216920F0F8002D
:1026100040EAC10028600DE0C8F800A0FFF7E2FD25
:10262000064604E0FFF7DEFD801B02281FD828685D
:102630008007F7D42078000722D5864F8748616944
:10264000703771B101210160FFF7CCFD064604E04F
:10265000FFF7C8FD801B022809D838688007F7D526
:102660000EE0C0F800A0FFF7BDFD064605E082E0E1
:10267000FFF7B8FD801B02287DD838688007F7D4A3
:102680002078400768D5DFF8CCB100270BF13C0B70
:10269000DBF80000C0000BD4DBF8001041F08051E3
:1026A000CBF80010DBF80000012700F0805000900C
:1026B0006B4E3068C00510D4306840F480703060D4
:1026C000FFF790FD009005E0FFF78CFD0099401AA0
:1026D000022850D83068C005F6D55E4EA0686C362A
:1026E00001280FD00528306810D020F0010030609C
:1026F000306820F004003060A068B8B1FFF772FDC8
:1027000000900FE0306840F00100F4E740F0040072
:102710003060F7E7FFF766FD0099411A41F2883013
:10272000814266D830688007F4D50EE0FFF75AFD85
:10273000009007E0FFF756FD0099411A41F28830FA
:10274000814256D830688007F4D42FB1DBF80010EE
:1027500021F08051CBF80010A069C8B33D49091D94
:102760000968C1F3810102294AD00228504607D0E6
:10277000C8F8600000E03CE0FFF734FD04463BE0B1
:102780004746C8F86000FFF72DFD064605E000BF8C
:10279000FFF728FD801B02282BD828688001F7D47A
:1027A000D4E907010843A16A2E4A490802EB014116
:1027B000626A41EA8211084394F82C1040EA0161F0
:1027C000C9F8001001203866FFF70CFD044606E04A
:1027D0003EE000BFFFF706FD001B022809D828686D
:1027E0008001F7D534E000BFFFF7FCFC001B022896
:1027F00002D90320BDE8F88F28688001F4D427E0CF
:102800000128F7D0D9F80000E26900F48001914274
:102810001CD1226A00F03F01914217D147F6C071E6
:10282000626A0140B1EB821F10D1A26A4FF0FF3300
:1028300000F4403103EB5202B1EB024F06D194F8A1
:102840002C1000F07060B0EB016F01D00120D1E7D7
:102850000020CFE70438024000004742800E474284
:10286000007000400000FFFF10B5401EB0F1807FF7
:1028700001D3012010BD4FF0E02460610F216017EB
:1028800000F011FD0020A06107202061002010BD94
:102890007047704770B590F83C20012A2CD0012475
:1028A00080F83C40022280F83D2003685A689D6809
:1028B00022F070060A6832435A60104B02689A424E
:1028C0000ED0B2F1804F0BD00D4B9A4208D00D4B79
:1028D0009A4205D00C4B9A4202D00C4B9A4204D13A
:1028E000496825F080031943916080F83D4000213C
:1028F00080F83C10084670BD022070BD0000014009
:102900000004004000080040000C0040004001406E
:1029100010B5040003D094F83D0010B107E0012089
:1029200010BD002084F83C00204600F01FF8022073
:1029300084F83D00211D206800F094FB012084F8FC
:10294000460084F83E0084F83F0084F8400084F894
:10295000410084F8420084F8430084F8440084F87D
:10296000450084F83D00002010BD000008B5006857
:10297000B0F1804F12D10A48016841F001010160B5
:102980000068002200F00100009011461C20FFF7B3
:1029900097FCBDE808401C20FFF784BC08BD000080
:1029A0004038024090F83D10012901D001207047C5
:1029B000022180F83D100168CA6842F00102CA6035
:1029C00000680E4988420ED0B0F1804F0BD00C4900
:1029D000884208D00B49884205D00B49884202D072
:1029E0000A49884204D1816801F00701062903D011
:1029F000016841F0010101600020704700000140C2
:102A00000004004000080040000C0040004001406D
:102A100070B5044690F83C000025012817D0012627
:102A200084F83C60022084F83D002068826822F02F
:102A3000770222F47F4282600868502838D00DDC8B
:102A400020284FD005DC90B3102811D14AE0022095
:102A500070BD302846D040280AD13BE060282FD0F6
:102A600070280DD0B0F5805F03D0B0F5005F12D0B4
:102A7000012584F83D60002084F83C00284670BDA4
:102A8000CB68D1E90121206800F038FB206881681B
:102A900041F0770109E0CB68D1E90121206800F01D
:102AA0002DFB2068816841F480418160E1E719E0F5
:102AB000CA684968206800F033FB5021206806E0AE
:102AC000CA684968206800F03CFB6021206800F07B
:102AD0001FFBCEE7CA684968206800F021FB40214F
:102AE0002068F4E7226801461046F0E7704770B5A9
:102AF0000446006801694FF00005C943890715D4F1
:102B0000C168C943890711D4E91E016101202077FA
:102B1000206880698007204602D0FFF7E7FF04E0C5
:102B200000F098F8204600F096F8257720680169B3
:102B3000C943490717D4C168C943490713D46FF083
:102B400004010161022020772068806910F4407F31
:102B5000204602D0FFF7CAFF04E000F07BF82046D1
:102B600000F079F8257720680169C943090716D470
:102B7000C168C943090712D46FF00801016104203C
:102B800020772068C0698007204602D0FFF7AEFF9B
:102B900004E000F05FF8204600F05DF8257720683B
:102BA0000169C943C90617D4C168C943C90613D40A
:102BB0006FF010010161082020772068C06910F4CF
:102BC000407F204602D0FFF791FF04E000F042F87A
:102BD000204600F040F8257720680169C943C907FD
:102BE00008D1C168C943C90704D1891E01612046C3
:102BF00000F032F820680169C943090609D4C168A8
:102C0000C943090605D46FF0800101612046FFF732
:102C10003FFE20680169C943490609D4C168C94318
:102C2000490605D46FF040010161204600F03EF8EE
:102C300020680169C94389060BD4C168C943890664
:102C400007D46FF0200101612046BDE87040FFF716
:102C500020BE70BD7047704770B5104C10490025FC
:102C6000E068401CE060884205D34FF480510D4875
:102C7000FFF7ABFAE56041F288302061E169012994
:102C8000A16801D1491CA160814206D3012208211B
:102C90000548FFF7A2FAE561A56070BD00000020BD
:102CA000400D0300000C024000000240704770B568
:102CB000040004D094F83D00002510B106E0012086
:102CC00070BD84F83C50204600F022F8242084F89F
:102CD0003D002068C16821F40051C160204600F029
:102CE00043FA2068016921F490410161206841693B
:102CF00021F02A0141612068C16841F40051C1609E
:102D00002564202084F83D0084F83E00002070BD3A
:102D100070B586B0064614216846FDF73EFC1F4993
:102D20003068884238D11E480025016841F02001F2
:102D30000160006800F0200005901948143801680F
:102D400041F0040101600068694600F0040005904C
:102D5000C02000900220CDE9010503200390082047
:102D600004901048FFF73CF9104C0F482060800594
:102D7000C4E901054FF48060C4E903508010656127
:102D8000C4E90650256220466562FFF753F808B192
:102D9000FEF72AFDB463A66306B070BD00140140BF
:102DA0004438024000080240286402401C01002010
:102DB00090F83D30202B18D1A9B1A2B190F83C3049
:102DC000012B12D001628284C2840021016421227D
:102DD00080F83D2080F83C100068C16841F0800117
:102DE000C160002070470120704702207047FEE755
:102DF0001FB5002112480091019102910F4A0391E1
:102E0000026001244FF480320461C0E9012104769C
:102E100080F820100B4AC0E90A21C461C16080F823
:102E200030104461FEF78EFD0420CDE90004072038
:102E3000029069460248FEF7D9FC1FBD0020014000
:102E4000480000200100000F2DE9F04786B0142152
:102E50006846FDF7A2FB3C480024016841F0800170
:102E60000160016801F080010591016841F00101F4
:102E70000160016801F001010591016841F0100154
:102E80000160016801F010010591016841F008013D
:102E90000160016801F008010591016841F0040139
:102EA00001600068DFF8A48000F0040005900022B3
:102EB00008214046FFF791F9DFF894904FF4FF4660
:102EC000002231464846FFF788F9DFF888A041F232
:102ED000F007002239465046FFF77FF904200090A2
:102EE0004FF48810CDE9010469464046FFF778F8B1
:102EF000082000900125CDE901546946404603941D
:102F0000FFF76EF80096CDE90154694648460394F0
:102F1000FFF766F80097CDE90154694650460394DF
:102F2000FFF75EF80F208DE8310069465046FFF745
:102F300057F8002211460820FFF7C2F90820FFF7D2
:102F4000B1F906B0BDE8F087303802400000024019
:102F500000100240000C024010B586B00024124858
:102F6000009401940294039404944FF080410594DA
:102F700001602A21C0E901140921C0E9031480215C
:102F80008161FFF7C5FC4FF4805000906946064808
:102F9000FFF73EFD2020CDE9040404A90248FFF715
:102FA00079FC06B010BD000090000020FEE77047DD
:102FB00070477047FFF71CB930B593B030216846B1
:102FC000FDF7EBFA14210CA8FDF7E7FA19480025E4
:102FD000016841F080510160006800F0805011905C
:102FE0001548016821F4404141F400410160006846
:102FF000022400F44040119001200390102004901E
:10300000009406940820CDE907505420CDE9090426
:1030100004200B906846FFF771FA0CA90F2081E895
:103020003100E002CDE90F0502210CA8FFF77AF983
:1030300013B030BD403802400070004005480168C0
:1030400041F47001016003494FF00060803908606D
:103050007047000088ED00E00148FFF748BD000020
:1030600090000020F0B502681D4B1E4C9F031E4DC2
:103070001E4E984207D0B84205D0A04203D0A842C5
:1030800001D0B04204D122F0700C4A6842EA0C022E
:10309000984210D0B8420ED0A0420CD0A8420AD01C
:1030A000B04208D0124CA04205D0124CA04202D02F
:1030B000114CA04203D122F44074CA6822434C69E7
:1030C00022F08002224302608A68C2620A68826239
:1030D000984201D10969016301214161F0BD0000FD
:1030E000000001400004004000080040000C0040C7
:1030F00000400140004401400048014010B5846890
:1031000042EA032224F47F440A432243826010BD32
:10311000826822F070020A4342F007018160704722
:1031200010B5036A046A24F001040462846924F07F
:10313000F00444EA021423F00A020A4384610262A2
:1031400010BD10B5036A23F0100303628369046A9B
:1031500023F4704343EA023224F0A00343EA01114E
:103160008261016210BD000070B50446006801690B
:10317000E26821F44051114301612169A068E269CC
:1031800008436169114308432168CA6849F20C6326
:103190009A430243CA6020684169A26921F44071E0
:1031A0001143416131492068884202D03049884248
:1031B00002D1FFF761F901E0FFF74EF9E269002360
:1031C000192164253226B2F5004F626828D0A0FB91
:1031D0000101930F9200FDF75DF80146B0FBF5F099
:1031E0006FF01802504301EB800006EB0010B0FBBB
:1031F000F5F000F0F002B1FBF5F002EB0012B1FBCC
:10320000F5F06FF01803584301EB800006EB001057
:10321000B0FBF5F000F00F0021681044886070BD2D
:10322000A0FB010192185B41FDF734F80146B0FBA9
:10323000F5F00201B1FBF5F06FF01803584301EB14
:10324000800006EBC000B0FBF5F000F0F80002EBE8
:103250004002B1FBF5F0584301EB800006EBC000E3
:10326000B0FBF5F000F00700D6E7000000100140C9
:1032700000140140FEE703B401984100009850EAB1
:10328000C12018BF04204A0D18BF40F0010040F2D1
:10329000FF72B2EB515F08BF40F00200012808BF87
:1032A000052002B070470907090E002804DB00F171
:1032B000E02080F80014704700F00F0000F1E020DB
:1032C00080F8141D704730380A2801D20120704759
:1032D000002070472DED068B82B0FEF791FFFFF7BF
:1032E0006BFEFFF7B1FDFFF783FDFFF735FE4A48A0
:1032F0000024016841F4800101600068224600F466
:103300008000009021463920FEF7DAFF3920FEF7D1
:10331000C9FF4348414901604FF4E131C0E901145C
:103320000C21C460C0E904418461C461FFF7BFFCA3
:103330003B484838FFF736FB394805223949903871
:10334000FEF716FC36484838FFF72CFB34480522B8
:1033500034499038FEF70CFC31489038FEF7A2FB58
:10336000304D9FED318B9FED329B9FED33AB344E53
:10337000AD1E4FF4FA772A4814219038FEF73CFB33
:1033800027489038FEF7DBFA323884B2AC8020460A
:1033900000F0FEF953EC182B00F0A2F853EC192BB7
:1033A00000F00AFA53EC1A2B00F09AF800F066F8D5
:1033B000286200F0FFFA41EC100B194853EC102B77
:1033C00020A1A4380094FCF7DDFF1548A438FDF7D0
:1033D000C5F8134982B2A4391148FFF7E9FC01216D
:1033E0003046FEF7EDFE08B1002200E00122A021E8
:1033F0003046FEF7F2FE02213046FEF7E1FE08B14C
:10340000002200E0012260213046FEF7E6FE384649
:10341000FEF7B2FDAFE70000303802400014014073
:10342000D8000020020000200000000000FEAF4095
:103430000000000000C8A940000000000000244077
:10344000000C02404125302E326625644200000007
:1034500010B500290AD00878002807D0054878441C
:10346000FDF77AFC002801D0002010BD0248784406
:1034700010BD0000360700002E07000021F00042BA
:10348000A2F16052B2F5801F01F0004328BFD2F1D3
:103490007F6C0BD95FEA001C43EAC20242EB50701A
:1034A00018BF704728BF20F001007047B2F5801F99
:1034B000BCBF184670474FEA410C1CF5001F02D2F2
:1034C000084600F0EDBA70B500F020FA000000895F
:1034D000FFF7F6BF4FF00040A0F5800070470000F6
:1034E0002DE9C04130B4DFF8A0C23CEA111418BF86
:1034F0003CEA131400F0EC8081EA03051CEA111485
:1035000044EAD57418BF1CEA131500F0C780A4EB79
:1035100005044FF0004545EAC12145EAC32341EACD
:10352000505143EA525304F17F74994204F5003438
:103530004FEAC0204FEAC22208BF904200F09C80B0
:103540004FEA13650FF24016765D4FEA134506FB0E
:1035500005F7C7F1807706FB07F74FEAD737A7FBD8
:1035600003687642C8F58038A7FB06CE38BFA8F1BD
:10357000010807FB08E64FF0000EA6FB028CE6FBF5
:1035800003CEDCF1000CCEF1004E38BFAEF1010EDF
:10359000A6FB0C584FF000074FF00005E6FB0E8726
:1035A000A1FB08C6A0FB07CE16EB0E0645F10005F1
:1035B000E1FB076515F1E04E7EBFA4F580345FEABC
:1035C00046066D4116F1800745F100054FEA1727C1
:1035D0004FEA066647EA0567A6F1DE46B6F1805F68
:1035E0004FEA15251FD9384624F0010C05EBC471AC
:1035F000BCF1FE6F01EB0C1102D8F0BCBDE80081FC
:1036000024425CBF01F5801E9EEAC47F02D4F0BC58
:10361000BDE80081244238D4F0BCA1F1C041BDE82E
:10362000004100F0C1B94FEAD22242EA43524FEAC8
:10363000D323A7FB02864FEAD02040EA415007FB84
:1036400003661EEA0E0F4FEAD12105FB026658BF42
:10365000A6EB0056B6EB00564FEA520E4EEAC37E7A
:1036600018EB0E0E56EB530EBDD518EB02085E415B
:103670007F1C55F10005B6E74FF480154FF00007A9
:103680004FF000064FF00008ADE7F0BC4FF000002F
:1036900001F1C04101F00041BDE8008111EA0C1FB9
:1036A0000CEA131500D00CE013EA0C1F00F0258083
:1036B0004FF00000F0BC81EA030101F00041BDE8D9
:1036C0000081F0BCBDE8004181EA030100F06CB963
:1036D000F0BCBDE8004170B500F018F9097EFC3E71
:1036E00000F007B881EA03014FF0000001F000414B
:1036F000704781EA030100F057B9F0BCBDE8004112
:103700004FF0000021497047FFFDFBF9F7F5F4F297
:10371000F0EEEDEBE9E8E6E4E3E1E0DEDDDBDAD86C
:10372000D7D5D4D3D1D0CFCDCCCBCAC8C7C6C5C4CA
:10373000C2C1C0BFBEBDBCBBBAB9B8B7B6B5B4B3E1
:10374000B2B1B0AFAEADACABAAA9A8A8A7A6A5A4CC
:10375000A3A3A2A1A09F9F9E9D9C9C9B9A99999890
:103760009797969595949393929191908F8F8E8E33
:103770008D8C8C8B8B8A89898888878786858584C0
:1037800084838382828181800000FF070000F87FAC
:10379000B0FA80F310FA03F10AD0C3F11D0303F568
:1037A00080634FEA41504FEA035202EBD121704748
:1037B0004FF0000070470000DFF848C170B51CEA08
:1037C000111E1EBF1CEA13159EEA0C0F95EA0C0F82
:1037D00000F06F8081EA030423EA4C134EEAD47EA2
:1037E00021EA4C1141F4801143F48013AE44A1FB53
:1037F000024CA0FB0365AEF17F7E361955EB0C053C
:10380000A1FB034C4CF10003A0FB021C16EB0C06C1
:10381000654153F10003094218BF46F0010613F455
:10382000007F0BD14FEA03314FEA0530340341EA00
:10383000155140EA16506FF003020AE04FEAC32127
:103840004FEAC520F40241EA555140EA56506FF064
:10385000020202EB2E4201EB025585EACE710AD03C
:103860005FEA440C18BF24F0004450F1000041F11D
:10387000000120EAD47040F2FE7C624500D270BDA7
:10388000A84214BF4FF080444FF04044002E08BFC0
:103890000024BEF1806FA8BFA1F1C041BDE8704017
:1038A00080F282804FF0000001F1C04101F0004140
:1038B00070479EEA0C0F0CEA131518BF95EA0C0F1F
:1038C00006D04FF0000081EA030E0EF0004170BDFB
:1038D00000F01CF88900013E00F007B800F009B8BC
:1038E0004FEA430C5FEA5C5C08D081EA030100F018
:1038F0005BB84FEA410C5FEA5C5CF6D14FF0000028
:10390000014970470000FF070000F87F0EF1020E2A
:103910002EF0030E5EF8046B364205D4012A43EB09
:10392000030515F5001F12D8012841EB010C1CF509
:10393000001F0CD80ED14FEAD17C15F5001F0CEBFF
:103940004C0C0CF1020C08BF4CEBD37C04E04FF0A4
:10395000080C01E04FEAD37C0CEB4C0526FA05F687
:1039600006F00706B6F1040C06D20EEB860CBDE895
:1039700070404CF0010C6047DFE80CF0090B0202CC
:103980004FF000414FF00000A1F5002170BD194635
:103990001046012851EB010418BFD4F5001484BF70
:1039A000002001F0004170BD0808A0F500114FEAA9
:1039B0003101704743004FEAD30C4FEA3C0C4340BF
:1039C0001FBF40070CF1605113F0FE4F70471CF011
:1039D000006F03D100200CF0004170470CF0004351
:1039E00043EA507010B540EACC0000F00EF800BF7A
:1039F000000000924FEA0001FFF7D6BF4FF00041F0
:103A00004FF00000A1F5002170470EF1020E2EF0DC
:103A1000030E5EF8044B244204D44FEA4102B2F193
:103A20007F4F11D84FEA4003B3F17F4F0CD80ED12E
:103A30004FEAD07CB2F17F4F0CEB4C0C0CF1020C36
:103A400008BF4CEBD17C04E04FF0080C01E04FEADA
:103A5000D17C0CEB4C0324FA03F404F00704B4F11A
:103A6000040C06D20EEB840CBDE810404CF0010CA7
:103A70006047DFE80CF0070802024FF00040A0F5B5
:103A8000800010BD0846420018BFD2F1807288BF86
:103A900000F0004010BD4FF04070E1EE100A70479A
:103AA000FF2141EAD050C0057047FCF7D2BE0000AC
:103AB00000000000000001020304060708090000DE
:103AC0000000010203040006101600061016040090
:103AD00000080000000000000002000100001000CB
:103AE00002400000000000A00000000005400000AF
:103AF000000000C8000000000C4000000000409CD6
:103B000000000000194000000020BCBE00000000C2
:103B100034400000BFC91B8E00000004B540000007
:103B2000504BCFD06607E2CF010000006C4100008F
:103B30003E8251AADFEEA73401000000D942000006
:103B4000DCB5A0E23A301F97FFFFFFFFB44500004D
:103B5000FD25A0C8E9A3C14FFFFFFFFFFF3F000005
:103B60000000008000000000FF3F00000000008017
:103B700000000000B03B00080000002034000000FE
:103B8000D0010008E43B000834000020AC0700002E
:103B9000EC0100081C00000043000000F8FFFFFFDC
:103BA0000C0000000E0000000F0000002E000000BE
:103BB00030000000000000000000000000000000D5
:103BC00000000000000000000000000000000000F5
:103BD000000000000024F4000100000010000000BC
:043BE00000000000E1
:040000050800019559
:00000001FF
