:020000040800F2
:10000000F007002049020008BD230008B9230008BA
:10001000BB230008C314000861270008000000008B
:100020000000000000000000000000001F24000885
:1000300009160008000000001D2400082124000803
:1000400063020008630200086302000863020008FC
:1000500063020008630200086302000863020008EC
:1000600063020008630200086302000863020008DC
:1000700063020008630200086302000863020008CC
:1000800063020008630200086302000863020008BC
:1000900063020008630200086302000863020008AC
:1000A000630200086302000863020008630200089C
:1000B000630200086302000863020008630200088C
:1000C000630200086302000863020008630200087C
:1000D0006302000863020008630200085527000855
:1000E000630200086302000863020008630200085C
:1000F000630200086302000863020008630200084C
:10010000630200086302000863020008630200083B
:10011000630200086302000863020008630200082B
:10012000630200086302000863020008630200081B
:10013000630200086302000863020008630200080B
:1001400063020008630200086302000863020008FB
:1001500063020008630200086302000863020008EB
:1001600063020008630200086302000863020008DB
:100170006302000863020008630200080000000038
:10018000630200086302000800F002F800F04CF877
:100190000AA090E8000C82448344AAF10107DA45E2
:1001A00001D100F041F8AFF2090EBAE80F0013F0E8
:1001B000010F18BFFB1A43F001031847A0290000E4
:1001C000C0290000103A24BF78C878C1FAD8520775
:1001D00024BF30C830C144BF04680C6070470000C1
:1001E0000023002400250026103A28BF78C1FBD840
:1001F000520728BF30C148BF0B607047662902F024
:100200004B84732900F01B84002070471FB502F057
:100210003EFC00F019FC04000020002102F0AAFBC3
:10022000E0601FBD10B510BD00F00EFD1146FFF7D8
:10023000EDFF02F0C5FA00F02CFD03B4FFF7F2FF6A
:1002400003BC00F06FFD00000948804709480047E3
:10025000FEE7FEE7FEE7FEE7FEE7FEE7FEE7FEE776
:10026000FEE7FEE704480549054A064B70470000D3
:10027000A124000889010008F0010020F0070020F7
:10028000F0030020F003002053EA020C00F0698024
:100290002DE9F04B4FF00006002B1FBFB3FA83F59A
:1002A00003FA05F424FA05F65E4012BF1643B2FACB
:1002B00082F502FA05F4C5F120051EBF22FA05FCFD
:1002C00044EA0C04203556EA044C4FEA144418BFA3
:1002D000641C4FF000084FF00009904271EB030CD2
:1002E00039D3002919BFB1FA81F701FA07F6B0FA3C
:1002F00080F700FA07F6C7F120071EBF20FA07FCB7
:1003000046EA0C062037B6FBF4FCA7EB0507103FC6
:1003100007F01F0BCBF120060CFA0BFB2CFA06F6AC
:1003200044BFB3460026202FA4BF5E464FF0000B0B
:100330005BEA060C08BF4FF0010B19EB0B09ABFB96
:10034000027C48EB0608C01B06FB02CC0BFB03CC6F
:1003500071EB0C01C1E70B46024641464846BDE839
:10036000F08B13B54FF000004FF00001AFF30080A9
:10037000BDE81C40704700000FB41CB5084B06AA2E
:100380007B4469460090059800F02FFB044600204E
:10039000694600F03DFB20461CBC5DF814FB0000E4
:1003A0008D06000070B50C460546012A05D0287858
:1003B000800600D5EA69002302E0012305E05B1C0A
:1003C000934202D2E05C0028F9D1A869E618C01A6D
:1003D000A861286A184428622846AFF3008004E028
:1003E000D5E9012114F8010B9047B442F8D328460F
:1003F000AFF3008070BD00002DE9F05F8946044630
:100400004FF0000ADFF824B1FB44C0F820A02046DA
:10041000E168884700287DD0252806D0D4E901214D
:100420009047206A401C2062F1E700255F46204685
:10043000E16888472028064607DB312E05D2B81927
:1004400010F8200C08B10543F1E7A80701D525F005
:100450000405C4F81CA00027C4F818A02A2E09D04F
:10046000304602F0A6F938B304EB8708303EC8F8EE
:10047000186019E059F8041B204604EB87029161CB
:10048000E1688847012F064618D1E069002820DA84
:1004900025F020051DE0D8F8180000EB800006EBE1
:1004A00040003038C8F818002046E1688847064602
:1004B00002F07FF90028EED1012F0AD02E2E08D1AC
:1004C0002046E16888477F1C0646022F45F020053C
:1004D000C4DBA069002803DA404245F00105A061B1
:1004E000E80701D025F01005A6B1A6F141001928B2
:1004F00002D8203645F400654A463146204625603C
:100500004D46FFF77BFE60B1012807D0ED1D25F0B9
:10051000070000E007E000F1080978E705F10409A9
:1005200075E730467AE7206ABDE8F09FA82600000C
:1005300010B5431C02E010F8011B71B18107FAD11C
:100540004FF0013202C88C1A8C4314EAC211F9D060
:10055000C01A0A0603D0C01E10BDC01A10BD0A047E
:1005600001D0801E10BD0902FCD0401E10BD4FF00E
:10057000000200B5134694469646203922BFA0E8F3
:100580000C50A0E80C50B1F12001BFF4F7AF0907FF
:1005900028BFA0E80C5048BF0CC05DF804EB8900F0
:1005A00028BF40F8042B08BF704748BF20F8022B33
:1005B00011F0804F18BF00F8012B7047704770474B
:1005C000704770472DE9FF4F0C461E464FF0FF372E
:1005D0008BB0D2E90001DDF860800A908A46C1F351
:1005E0000A5505B93D46002108464FF00000BAF112
:1005F000000F00F4400005DA00EB80004FF44001EA
:1006000001EA50004FEA9059B9F1010F00DDB946F7
:100610000A9850EA4A000ED044F61050A5F2FF3571
:1006200045432F14B8F1000F1ED07542291E1EDD60
:10063000C9F100021CE0B8F1010F4FF0000001D039
:10064000302103E0F24305E02154401CB042FBDBC3
:1006500030460022002121540B99C1F80880C1E9DD
:1006600000200FB0BDE8F08FBD1B6D1CDEE74A46D1
:1006700000DA694206A800F071FA06AB93E80700B9
:1006800003AB83E8070050460A9900F052FB8DE85F
:100690000700A0F500501F3800900398002D0ADDD8
:1006A00042F21F014A460844002303A9039068460A
:1006B00000F0BBFD09E0A0F500504A461F380023BA
:1006C00003A90390684600F0C5FD8DE8070000040B
:1006D000000C03D04FF0FF30410800E01046B8F1A5
:1006E000000F03D00022009215461EE0751E05D4AF
:1006F00000F0AEF9303262556D1EF9D5B3460122D5
:10070000084302D000227F1C04E02078302801D169
:1007100000227F1E002A099784D01DE0112D07DAE0
:1007200000F096F9303262556D1C50EA0102F5D1A5
:10073000084302D00098C8B10EE00021681E05E011
:10074000235C625C63542254401E491C8142F7DBE7
:10075000AB46A81B401E0990002004F80B000B9824
:10076000099AC0F80880C0E9002B7AE711264FF0FB
:10077000000857E72DE9F04F88460446D21D22F0C5
:10078000070191B0D1E90001CDE90A0101F0E9FFCB
:1007900002460B98C00F01D02D2007E0206881078A
:1007A00001D52B2002E0202101EAC000032A099094
:1007B00001D0072A05DB03464146204600F08EF9AA
:1007C0000BE12078800601D5E06900E00620B8F151
:1007D000650F814606D0B8F1660F18D0B8F1670FE3
:1007E00070D131E00020B9F1110F009001DB11232D
:1007F00001E009F101030AAA01A90CA8FFF7E2FE32
:10080000DDE90C70002609F10105834647E001206F
:100810004B4600904FF000470AAA01A90CA8FFF729
:10082000D1FEDDE90DB00C995D46002610B909F145
:1008300001000D18B9EB050003D4C0F1FF3609F132
:100840000105A5EB09002BE0B9F1010F01DA4FF02A
:1008500001090020B9F1110F0090484601DD112374
:1008600000E003460AAA01A90CA8FFF7ABFEDDE9E8
:100870000C704D4600268346207800070AD4AB450D
:1008800000DA5D4601A8012D04DD411911F8011CB3
:10089000302907D04F4502DA17F1040F04DA01209E
:1008A00082460FE06D1EEEE7002F02DCED1B3E449A
:1008B00003E0781CA84200DD7D1CB81B00F1010A92
:1008C0004FF000472078000703D4AA4501DB4FF022
:1008D000FF3A0021B7F1004F0DF143088DF84310A6
:1008E00024D002202B23002F01DA7F422D230A215E
:1008F000021EA0F1010000DC5FB197FBF1FC97FB49
:10090000F1F201FB1C7C17460CF1300C08F801CD0C
:10091000EEE7A8F1010003702188090501D5452102
:1009200000E06521A0F1010800F8011C09980FA959
:10093000A1EB0807FF1D00B10120411901EBEA708E
:10094000A1693844081A401EA0612078C00602D46C
:100950002046AFF30080099828B1D4E901219047DF
:10096000206A401C20622078C00622D52046AFF3C2
:1009700000801EE0002E04DBB34502DD01A8805D8F
:1009800000E03020D4E901219047206A401C206219
:10099000761CAAF101005FEA000A0AD100F054F8BF
:1009A000C0680168405CD4E901219047206A401C7E
:1009B0002062281EA5F10105DCDC07E0D4E9012155
:1009C00018F8010B9047206A401C2062381EA7F1DE
:1009D0000107F3DC2046AFF30080032011B041E6AD
:1009E00001694A1C02610878704700B58FB0CDE9F3
:1009F00001310021059105497944CDE903101146E3
:100A00006846FFF7F9FC0FB000BD0000E5FFFFFFEF
:100A10000A6802F8010B0A60704710B5436913B108
:100A2000AFF3008001E0FFF7BDFC012010BD12789C
:100A300000F124010A7000224A700122EDE71168DA
:100A40004FF0FF32E9E7000000487047B001002096
:100A500030B5B0F10A024FEA900E71F100034EEA90
:100A6000817EB0EB0E0061EB91014FEA101E4EEA61
:100A7000017E10EB0E0041EB11114FEA102E4EEAF1
:100A8000016E10EB0E0041EB11214FEA104E4EEAC1
:100A9000014E10EB0E0041EB1141401841F10001F5
:100AA0004FEAD00040EA41704FEAD10110EB8005D7
:100AB0004FEA810444EA907444EB01046D1944EB5D
:100AC0000404521BA3414FF0000348BF0A3200D573
:100AD00030BD401C41F1000130BD00002DE9F04166
:100AE0001F46044603260168072A01F4006004DB60
:100AF00008B116A505E016A503E008B115A500E0AC
:100B000015A521F010002060A069C01EA0610FB1E2
:100B1000401EA0612046AFF300804FB1D4E901210F
:100B200038469047206A401C2062C01C206206E0C4
:100B3000206AFAE7D4E9012115F8010B9047761EE7
:100B4000F8D22046AFF30080BDE8F0814E414E0060
:100B50006E616E00494E4600696E66002DE9F047F1
:100B6000814616468AB0354878440DC88DE80D0098
:100B700032487844801C03AC0DC884E80D0041F66F
:100B80009B300844372190FBF1F290FBF1F5A5F181
:100B9000800501FB12041B3C02D56442012000E0E9
:100BA0000020DFF898A080460027FA44AAF1BE0A88
:100BB0000EE0E0070AD03246684607EB4701012302
:100BC0000AEB810100F046FB8DE8070064107F1CF2
:100BD000002CEED1194F7F44AE3F19E0E80715D045
:100BE00007EB04100DF1180A90E80E008AE80E00D9
:100BF000C068F04201D1981908903246012306A935
:100C000003A800F027FB03AB83E807006D10641C0A
:100C1000002DE3D14FF0010332466946B8F1000FD1
:100C200003A802D000F001FB01E000F013FBC9E9CA
:100C30000001C9F808200AB0BDE8F087D81F0000FD
:100C400000487047900100207546FFF7F9FFAE4657
:100C500005006946534620F00700854618B020B5C8
:100C6000FFF700FBBDE820404FF000064FF0000703
:100C70004FF000084FF0000B21F00701AC46ACE844
:100C8000C009ACE8C009ACE8C009ACE8C0098D46B1
:100C9000704710B50446AFF300802046BDE8104011
:100CA000FFF7CBBA4FF0013C50F8042B51F8043B4E
:100CB0009A4221D1A2EB0C03934313EACC1317D130
:100CC00050F8042B51F8043B9A4215D1A2EB0C03C7
:100CD000934313EACC130BD150F8042B51F8043B87
:100CE0009A4209D1A2EB0C03934313EACC13DBD055
:100CF0004FF00000704700BFD01A01BAB1FA81F17D
:100D000001F0180122FA01F0CB40C1F12001DBB261
:100D1000C0B2C01A2CFA01F3D11A914311EAC311DF
:100D2000E6D1704701491820ABBEFEE7260002005D
:100D300070475FEA400C08BF91F0000F4FEA8C2328
:100D40004FEAC12243EA51514FEA1C5018BF00F547
:100D5000F0404FEA300018BF41F000415FEA6C5CA0
:100D600000F02980BCF1FF3F08BF40F08040704791
:100D7000130C06BF12044FF0100C4FF0000C130EB2
:100D800004BF12020CF1080C130F04BF12010CF186
:100D9000040C930F04BF92000CF1020CD30F04BF9C
:100DA00052000CF1010C11464FF00002A0F11F009F
:100DB000A0EB0C00704711F0004F08BF704731F0F6
:100DC00000413FF4D5AF0B0C06BF09044FF0100CE7
:100DD0004FF0000C0B0E04BF09020CF1080C0B0FB6
:100DE00004BF09010CF1040C8B0F04BF89000CF146
:100DF000020CCB0F04BF49000CF1010CCCF1200315
:100E0000A0EB0C0022FA03F302FA0CF241EA030110
:100E100000F10100704720F07F4C80EA030023F0CE
:100E20007F47ACEB070303F57C5300F0004003F170
:100E3000FF032DE980494FEA154B09B44FEA1443EB
:100E400025EA0B4E24EA03480FF2042606EB13278B
:100E500049083E785FEA320203FB0667C7F50007E0
:100E600007FB06F64FEA54374FEAD64606F102066C
:100E700007FB066CCCF1005C4FEA1C472CEA074CE0
:100E800007FB06F40CFB06F504EB15464FEA961635
:100E900034BF00204FF000404FEAD13706FB07FC7B
:100EA0004FEA1C4C0CFB0BF7D21B03FB0CF761EB5E
:100EB00007010CFB0EF7B0EB074072EB17420CFB7F
:100EC00008F734BFA2EB0742B2EB074261EB1741D0
:100ED0004FEA0C444FEA910706FB07FC4FEA1C4C13
:100EE0000CFB0BF7B0EBC74072EB573203FB0CF770
:100EF00034BFA2EBC742B2EBC74261EB57310CFBE8
:100F00000EF7B0EBC70072EB57720CFB08F734BF5B
:100F1000A2EBC702B2EBC70261EB5771039F4FEA26
:100F2000816141EA921104EBCC044FEAD1374FEAD8
:100F3000826206FB07FC42EA90124FEA80604FEAA9
:100F40001C4C0CFB0BF7D21B03FB0CF761EB0701EE
:100F50000CFB0EF7B0EB074072EB17420CFB08F7E7
:100F600034BFA2EB0742B2EB074261EB17414FEAF5
:100F70008C554FEA910704EB9C2406FB07FC4FEAD3
:100F80001C4C0CFB0BF7B0EBC74072EB573203FB6A
:100F90000CF734BFA2EBC742B2EBC74261EB57314B
:100FA0000CFB0EF7B0EBC70072EB57720CFB08F7A7
:100FB00034BFA2EBC702B2EBC70261EB577115EB6E
:100FC0004C254FEA816141EA92114FEA82624FEA71
:100FD000D13742EA901206FB07FC44F100044FEAC5
:100FE00080604FEA1C4C0CFB0BF7D21B03FB0CF789
:100FF00061EB07010CFB0EF7B0EB074072EB1742F9
:101000000CFB08F734BFA2EB0742B2EB074261EBDF
:10101000174115EB1C154FEA813141EA92414FEA25
:10102000823242EA90424FEA80304FEA0C7644F135
:10103000000448EA03434EEA0B484FF0000EB2EBBF
:10104000080C71EB030724BF624639464EEB0E0EC7
:101050004FF0000B0018524149414BEB0B0BB2EB28
:10106000080C71EB03077BF1000B24BF6246394685
:101070004EEB0E0E4FF0000B0018524149414BEB66
:101080000B0BB2EB080C71EB03077BF1000B24BFD9
:10109000624639464EEB0E0E51EA020718BF46F083
:1010A000010616EB0E7655F1000254F1000103D54E
:1010B000BDE88901BDE80088BDE88901BDE80048B8
:1010C000B619524141EB0101A3F101037047808041
:1010D0007F7E7D7C7B7A7978777676757473727192
:1010E00071706F6E6E6D6C6C6B6A6A69686867664A
:1010F00066656464636362616160605F5F5E5E5DDC
:101100005D5C5C5B5B5A5A5959585857575656554F
:1011100055555454535352525251515050504F4FB1
:101120004F4E4E4D4D4D4C4C4C4B4B4B4A4A4A4901
:101130004949484848474747474646464545454444
:101140004444444343434342424242414141002BD1
:101150009C4630D477002BD01CB54FEA370703B438
:101160004FF010004FF01001BAF1000F06D0BCF1A3
:10117000000FDCBF40F0080040F008014FF0000015
:101180000FBCBDE810400BF1010BBBF1010F08BF14
:101190005FEA170722BF12F1010211F101014FF0BE
:1011A000004143F1000300F0004043EA00007047B3
:1011B000F9D35708D0E746EA064613F1400F4FEA45
:1011C00016461FDD13F1200FDFBF16430A4600212C
:1011D00020335B42BED0C3F1200746EA064602FA3E
:1011E00007F74FEA164646EA0706C3F1200722FA38
:1011F00003F201FA07F721FA03F14FF0000342EA84
:101200000702A7E746EA020646EA06464FEA1646FE
:1012100046EA0106BCBF46EA0646360C4FF000031C
:101220004FF000024FF0000194E72DE9804C9A4600
:10123000934670B491E8380007C831EA400C48BFC3
:1012400034EA430C03D5FFF7E6FDFFF780FFF0BC5F
:10125000BDE8008C2DE9804C9A46934670B491E825
:10126000380007C810F0804F08BF13F0804F03D13B
:1012700000F005F8FFF76BFFF0BCBDE8008C20F034
:101280007F4780EA030023F07F4C07EB0C03A3F5B4
:101290007C5300F00040A3F1FE0392F0000F00F039
:1012A000B38095F0000F00F077802DE901494FEAF7
:1012B00011404FEA144621EA004800FB06FC24EAEC
:1012C000064708FB06F607FB08F800FB07F718EBD4
:1012D00006484CEB164C4FEA124B18EB07484FEA06
:1012E00015464CEB174022EA0B4E0BFB06FC25EA99
:1012F00006470EFB06F607FB0EFE0BFB07F71EEB81
:10130000064E4CEB164C4FF000061EEB074E4CEB16
:10131000174B18EB0B0840F1000018EB0E0B58EBC5
:10132000000840F100008F1A4FF000013CBFC94394
:10133000661B14BFB5EB040C00213CBFC943F61B70
:101340004FEA17444EEA8E0E27EA04454FEA1C473F
:1013500004FB07622CEA074C05FB07F70CFB05F6BC
:1013600004FB0CFC16EB074642EB174216EB0C464F
:1013700042EB1C421BEB060658EB0202414146EAD7
:101380009E0601D5BDE80189B619524141EB010124
:10139000A3F10103BDE801894FEA14454FEA114763
:1013A00024EA054621EA074C05FB07F406FB07F78C
:1013B0000CFB06F105FB0CFC11EB074144EB174459
:1013C0004FEA124711EB0C4144EB1C4422EA074C54
:1013D00005FB07F206FB07F70CFB06F605FB0CFC0A
:1013E00016EB074642EB174216EB0C4642EB1C4548
:1013F0006A1854F1000148BF7047B619524141EBD9
:101400000101A3F10103704795F0000F37D04FEAB7
:1014100011424FEA144721EA024624EA074C02FB34
:1014200007F106FB07F70CFB06F402FB0CFC14EBC0
:10143000074441EB17414FEA154714EB0C4441EBCD
:101440001C4125EA074C02FB07F506FB07F70CFBDE
:1014500006F602FB0CFC16EB074645EB174516EBB0
:101460000C4645EB1C42121951F1000148BF704770
:10147000B619524141EB0101A3F1010370474FEA54
:1014800014454FEA114724EA054621EA074C05FBBB
:1014900007F106FB07F70CFB06F24FF0000605FB11
:1014A0000CFC12EB074241EB174112EB0C4251EBE3
:1014B0001C4148BF7047921841EB0101A3F10103A1
:1014C0007047FEE77CB505460C46002000F078FF2B
:1014D000002000F099FF4FF4FA7000F097F8012017
:1014E00000F092FF1E2000F091F8012000F068FF4C
:1014F000684600F03FF800231A466846815C521C9B
:101500001944D2B2CBB2042AF8D39DF80400984211
:1015100019D1BDF80200F2EE040A40BA00EE100A3A
:10152000BDF800100120B8EE400A49BA80EE201A3A
:1015300000EE101AB8EE400A85ED001A80EE201A6F
:1015400084ED001A7CBD00207CBD0000084A10B567
:10155000506000205180012404FA00F30B4201D0B6
:10156000107010BD401CC0B21028F5D310BD000093
:10157000000000202DE9F0410646002427462820DF
:1015800000F044F800F034FF0028FBD000F030FFFA
:101590000028FBD11F254FF0010800BF00F028FFF5
:1015A0000028FBD0282000F031F800F021FF10B116
:1015B00008FA05F0044300F01BFF0028FBD16D1E64
:1015C0006DB2002DEADA072500F012FF0028FBD0EB
:1015D000282000F01BF800F00BFF18B108FA05F006
:1015E0003843C7B200F004FF0028FBD16D1E6DB276
:1015F000002DE9DA200E3070200C7070200AB070D7
:10160000F4703771BDE8F081704700000449054A65
:101610000968B1FBF2F14143491EFDD27047000059
:101620001C000020C0C62D002DE9F0410446876D46
:1016300000F06AF9064694F835000025022806D025
:101640008020606584F834500120BDE8F081206876
:10165000016821F0160101602068416921F08001D4
:101660004161206C08B9A06C20B12068016821F0AC
:10167000080101602068016821F0010101600CE0AF
:1016800000F042F9801B052807D92020606503205F
:1016900084F8350084F83450D7E720680068C00724
:1016A000EED194F85C103F208840B860012084F8A7
:1016B000350084F834500020C7E790F8351002292F
:1016C00003D08021416501207047052180F8351045
:1016D0000068016821F001010160002070470000EE
:1016E00070B5044600F010F90546601C02D00448AD
:1016F0000078044400F008F9401BA042FAD370BD02
:10170000100000202DE9F84FDFF8BCA100220125D0
:101710000AF1040B03264FF00F090BF1040E00BF72
:101720000B6805FA02F42340A34270D10F7907F049
:101730000307012F01D0022F16D187684FEA420814
:1017400006FA08FC27EA0C07D1F80CC00CFA08FCD2
:101750004CEA070CC0F808C04768A7430C79C4F3EB
:10176000001494403C4344600C79E443A4070AD03D
:10177000C4684FEA420C06FA0CF7BC438F6807FABC
:101780000CF72743C7600C7904F00304022C12D134
:10179000D40800EB840CDCF820405707FF0E09FA50
:1017A00007F824EA0804D1F8108008FA07F848EA94
:1017B0000408CCF8208004684FEA420C06FA0CF7C3
:1017C000BC430F7907F0030707FA0CF727430760BC
:1017D0004C6814F4403F70D03C4C276847F4804775
:1017E0002760246822F0030704F480440094384CF6
:1017F00007EB040CDCF8084897074FEA177809FA5A
:1018000008F7BC43334FB84202D1002724E054E02C
:10181000314FB84201D101271EE0304FB84201D10B
:10182000022719E02E4FB84201D1032714E02D4FB3
:10183000B84201D104270FE02B4FB84201D1052750
:101840000AE02A4FB84201D1062705E0284FB842E6
:1018500001D1072700E0082707FA08F72743CCF84B
:101860000878DAF800405746D1F804C09C435FEA94
:10187000CC3C00D51C433C60DBF800405F46D1F80F
:1018800004C09C435FEA8C3C00D51C433C60DEF8FE
:1018900000407746D1F804C09C435FEACC2C00D5C9
:1018A0001C433C60084F0C373C68D1F804C09C4393
:1018B0005FEA8C2C00D51C433C60521C102AFFF4BC
:1018C0002FAFBDE8F88F0000003C014044380240D3
:1018D00000300140000002400004024000080240C5
:1018E000000C0240001002400014024000180240A8
:1018F000001C02400069084000D0012070470AB176
:10190000816170470904FBE7014880687047000067
:1019100010000020024881680278114481607047FD
:10192000100000200B4810B5016841F400710160FF
:10193000016841F480610160016841F480710160D7
:10194000032000F06FF80F2000F006F800F024F8F4
:10195000002010BD003C024070B50D4D04464FF410
:101960007A712878B1FBF0F00A490968B1FBF0F010
:1019700000F00CFB48B9102C07D200222146501E63
:1019800000F030F800206C6070BD012070BD0000D8
:10199000100000201C0000200A4808B5016841F42E
:1019A00080410160006800F4804000900548001FFD
:1019B000016841F080510160006800F080500090A3
:1019C00008BD000044380240002809DB00F01F0277
:1019D000012191404009800000F1E020C0F8001191
:1019E00070470000F0B40E4B1B680C46C3F3022393
:1019F000C3F10705042D00D90425191D072901D2BB
:101A0000002300E0DB1E012606FA05F1491E2140F5
:101A100099409E40761E16403143F0BC00F0B9BE9E
:101A20000CED00E0064900F0070208684FF6FF03DE
:101A3000184040EA0220034A104308607047000043
:101A40000CED00E00000FA052DE9F0470E46050018
:101A500065D0DFF81481D8F80000F7B200F0070075
:101A6000B04207D288F80070D8F8000000F00700F4
:101A7000B04254D128683D4C810712D5400703D5A8
:101A8000206840F4E05020602878000703D52068E3
:101A900040F4604020602068A96820F0F00008430E
:101AA00020602878C0072DD030496868083901289F
:101AB00012D0022813D0032811D009688907002901
:101AC0002DDA216821F0030101432160FFF71CFF9B
:101AD000814641F2883A0EE009688903EFE7096818
:101AE0008901ECE7FFF710FFA0EB0901514502D98E
:101AF0000320BDE8F0872068696800F00C00B0EBB7
:101B0000810FEFD1D8F80010404601F00701B14233
:101B100007D90770006800F00700B04201D001202B
:101B2000E7E72878400705D52068E96820F4E05009
:101B3000084320602878000706D52068296920F42A
:101B4000604040EAC100206000F038F82168084A8F
:101B5000C1F30311515CC84006490860064800689B
:101B6000FFF7FAFE0020C4E7003C024008380240BC
:101B70009C2A00081C00002014000020044805498D
:101B800000680968044AC1F38221515CC84070476B
:101B90001C00002008380240AC2A0008044805490F
:101BA00000680968044AC1F34231515CC84070477B
:101BB0001C00002008380240AC2A0008154810B567
:101BC000006810F00C02144813D01449042A0FD0F6
:101BD000082A0ED10F4C241F2268236802F03F020E
:101BE0005B0207D52068C0F38810A0FB010106E066
:101BF000084610BD2168C1F38811A1FB0001002334
:101C0000FEF742FB2168C1F30141491C4900B0FBCA
:101C1000F1F010BD083802400024F40040787D0146
:101C20002DE9F84F04006ED02078DFF84C93C00700
:101C3000A9F104054AD009F104000168C1F381014A
:101C4000012908D00068C0F3810002280AD1D9F820
:101C50000000400206D52868800337D56068002858
:101C6000E1D033E06068B0F5803F10D0B0F5A02F30
:101C7000286810D020F480302860286820F4802064
:101C800028606068A8B1FFF73FFE06460DE02868AF
:101C900040F48030F4E740F480202860F7E700BF8C
:101CA000FFF732FE801B642873D828688003F7D5BD
:101CB0000CE0FFF729FE064605E000BFFFF724FE13
:101CC000801B6428F0D828688003F7D42078DFF8D8
:101CD000AC8280074FF0000A3ED5A748001D01687E
:101CE00011F00C0F08D00068C0F3810002280BD15E
:101CF000D9F80000400207D42868800716D5E068AC
:101D0000012800D112E033E1E068B8B10120C8F841
:101D10000000FFF7F9FD064605E000BFFFF7F4FD00
:101D2000801B0228C0D828688007F7D52868216959
:101D300020F0F80040EAC10028600DE0C8F800A0DB
:101D4000FFF7E2FD064604E0FFF7DEFD801B0228F8
:101D50001FD828688007F7D42078000722D5864F3F
:101D600087486169703771B101210160FFF7CCFDCF
:101D7000064604E0FFF7C8FD801B022809D8386832
:101D80008007F7D50EE0C0F800A0FFF7BDFD0646BE
:101D900005E082E0FFF7B8FD801B02287DD8386897
:101DA0008007F7D42078400768D5DFF8CCB100274A
:101DB0000BF13C0BDBF80000C0000BD4DBF800108B
:101DC00041F08051CBF80010DBF80000012700F053
:101DD000805000906B4E3068C00510D4306840F4DD
:101DE00080703060FFF790FD009005E0FFF78CFDFC
:101DF0000099401A022850D83068C005F6D55E4ECA
:101E0000A0686C3601280FD00528306810D020F06B
:101E100001003060306820F004003060A068B8B184
:101E2000FFF772FD00900FE0306840F00100F4E72A
:101E300040F004003060F7E7FFF766FD0099411AB3
:101E400041F28830814266D830688007F4D50EE0D0
:101E5000FFF75AFD009007E0FFF756FD0099411A81
:101E600041F28830814256D830688007F4D42FB1CF
:101E7000DBF8001021F08051CBF80010A069C8B346
:101E80003D49091D0968C1F3810102294AD0022890
:101E9000504607D0C8F8600000E03CE0FFF734FD92
:101EA00004463BE04746C8F86000FFF72DFD0646B4
:101EB00005E000BFFFF728FD801B02282BD828680B
:101EC0008001F7D4D4E907010843A16A2E4A4908E2
:101ED00002EB0141626A41EA8211084394F82C1036
:101EE00040EA0161C9F8001001203866FFF70CFDD7
:101EF000044606E03EE000BFFFF706FD001B022897
:101F000009D828688001F7D534E000BFFFF7FCFC52
:101F1000001B022802D90320BDE8F88F2868800141
:101F2000F4D427E00128F7D0D9F80000E26900F4E2
:101F3000800191421CD1226A00F03F01914217D1E9
:101F400047F6C071626A0140B1EB821F10D1A26AEC
:101F50004FF0FF3300F4403103EB5202B1EB024F7C
:101F600006D194F82C1000F07060B0EB016F01D036
:101F70000120D1E70020CFE70438024000004742AB
:101F8000800E4742007000400000FFFF10B5401E69
:101F9000B0F1807F01D3012010BD4FF0E0246061DB
:101FA0000F21601700F0F5FB0020A06107202061E1
:101FB000002010BD70477047F8B5016804460868F6
:101FC000CA684B6910F00F0F4FF0000559D003F0AD
:101FD000010602F49077374365D0C10705D0D105DB
:101FE00003D5216C41F001012164410705D5D907D2
:101FF00003D0216C41F002012164810705D5D90786
:1020000003D0216C41F004012164010707D502F0DF
:102010002001314303D0216C41F008012164216C7F
:1020200000293AD0800604D5900602D5204600F05B
:102030006EFA20684069216CC0F38010090700D453
:1020400060B3204600F03CFA20684069400621D584
:102050002068143050E8001F21F0400140E80012D1
:10206000002AF5D1A06BA8B16C490165A06BFFF700
:1020700024FB002811D0A06B016D01B0BDE8F04039
:10208000084783060FD593060DD52046BDE8F840D6
:1020900000F03DBA2046FFF78EFFF8BD2046FFF75F
:1020A0008AFF2564F8BD266B2023012E79D1C60650
:1020B00077D5D60675D50868486800904869400607
:1020C00040D5A16B086840680004000CEAD0A28DDE
:1020D0008242E7D9E085C869B0F5807F2DD02068BD
:1020E0000C3050E8001F21F4807140E80012002AF3
:1020F000F5D12068143050E8001F21F0010140E8BC
:102100000012002AF5D12068143050E8001F21F099
:10211000400140E80012002AF5D184F83E302563E2
:1021200020680C3050E8001F21F0100140E8001238
:10213000002AF5D1A06BFFF777FAA08DE18D401A48
:1021400081B229E0A08DE18D401A81B2E08D002896
:10215000A8D00029A6D020680C3050E8002F22F427
:10216000907240E80026002EF5D12068143050E827
:10217000002F22F0010240E80026002EF5D184F85D
:102180003E30256320680C3050E8002F22F010020A
:1021900040E80023002BF5D12046FFF70BFFF8BDE8
:1021A000FFE705062BD5150629D594F83D00212813
:1021B000F5D1A068B0F5805F01D12069B0B1206A87
:1021C000411C2162216800784860E08C401E0004B8
:1021D000000CE084E3D12068C16821F08001C16077
:1021E0002068C16841F04001C160D8E7206A0088DA
:1021F000C0F308004860206A801C2062E5E74006C2
:10220000CDD55006CBD5CA68204622F04002CA6020
:1022100084F83D3000F0CFF8C1E70000B124000899
:1022200070B5040004D094F83D00002510B106E01C
:10223000012070BD84F83C50204600F023F8242093
:1022400084F83D002068C16821F40051C160204637
:1022500000F0BEF92068016921F490410161206815
:10226000416921F02A0141612068C16841F40051AF
:10227000C1602564202084F83D0084F83E000020E1
:1022800070BD000010B586B0044614216846FEF704
:102290006EF918492068884229D117480021026840
:1022A00042F480220260006800F480200590124809
:1022B0001038026842F002020260006800F002007A
:1022C00005904FF4406000900220CDE90101032009
:1022D00003900720049069460848FFF713FA00228C
:1022E00011462720FFF77EFB2720FFF76DFB06B086
:1022F00010BD000000480040403802400004024089
:10230000704700002DE9F843044690F83D001F4651
:1023100016460D4620284CD1C5B1BEB194F83C00FC
:10232000012846D0012084F83C004FF00008C4F892
:102330004080212084F83D00FFF7E6FAA68481461C
:10234000E684A068B0F5805F03D004E00120BDE81A
:10235000F883206928B12E465FF0000584F83C80A0
:102360000EE00026FAE78021204600F0B7F9A0B978
:10237000AEB116F8010B21684860E08C401EE08485
:10238000E08C4B464FF0000200970028EBD14FF055
:102390004001204600F0A2F930B10320D7E735F81C
:1023A000020BC0F30800E6E7202084F83D0000207F
:1023B000CDE70220CBE77047FEE7FEE7FEE700002F
:1023C00000B50A4A85B0518800910021039102911D
:1023D00010B1012803D003E00120019000E0019139
:1023E00069465068FFF78EF905B000BD0000002077
:1023F000044810B541884068FFF77CFA00F00100FE
:1024000010BD000000000020020003484188406821
:1024100000D00122FFF773BA000000207047704718
:10242000FFF778BA10B592B030216846FEF79FF8F2
:1024300014210CA8FEF79BF817480024016841F00E
:1024400080510160006800F08050119013480168CD
:1024500041F4804101600068069400F480401190CE
:102460000220009001200390102004906846FFF79E
:10247000D7FB08B172B6FEE70F20CDE90C040E942D
:102480000F9400210CA81094FFF7DEFA002801D069
:1024900072B6FEE712B010BD403802400070004036
:1024A0000248016841F470010160704788ED00E066
:1024B00010B5806B0021C185C184FFF77CFD10BD84
:1024C00001680C3151E8002F22F4907241E800239A
:1024D000002BF5D10168143151E8002F22F00102E0
:1024E00041E80023002BF5D1016B012909D10168D6
:1024F0000C3151E8002F22F0100241E80023002B9C
:10250000F5D1202180F83E1000210163704708B505
:1025100090F83E10222901D0022008BD82684FF4B5
:1025200080539A4201D1016921B1816A9A421BD03C
:102530004AB10AE00268816A5268C2F308020A805E
:10254000816A891C08E0026972B10268526802F06F
:102550007F020A70816A491C8162C18D491E09048B
:10256000090CC18503D019E002685268F1E70168DF
:10257000CA6822F02002CA600168CA6822F4807228
:10258000CA6001684A6922F001024A61202180F88C
:102590003E10016B012903D0FFF7B2FE002008BDF9
:1025A0000021016301680C3151E8002F22F0100274
:1025B00041E80023002BF5D101680A68D20602D554
:1025C0000A6849680091818DFFF7F4FCE6E7000096
:1025D00070B5044600680169E26821F44051114376
:1025E00001612169A068E2690843616911430843F8
:1025F0002168CA6849F20C639A430243CA602068A2
:102600004169A26921F44071114341613149206857
:10261000884202D03049884202D1FFF7BFFA01E078
:10262000FFF7ACFAE2690023192164253226B2F5DE
:10263000004F626828D0A0FB0101930F9200FDF7C4
:1026400023FE0146B0FBF5F06FF01802504301EB9A
:10265000800006EB0010B0FBF5F000F0F002B1FBDB
:10266000F5F002EB0012B1FBF5F06FF018035843E0
:1026700001EB800006EB0010B0FBF5F000F00F005E
:1026800021681044886070BDA0FB010192185B4175
:10269000FDF7FAFD0146B0FBF5F00201B1FBF5F0E4
:1026A0006FF01803584301EB800006EBC000B0FB4D
:1026B000F5F000F0F80002EB4002B1FBF5F05843F2
:1026C00001EB800006EBC000B0FBF5F000F0070066
:1026D000D6E7000000100140001401402DE9F04150
:1026E000984617460E460446069D27E0681C25D0EE
:1026F0002DB1FFF709F9A0EB0800A8421ED9206808
:102700000C3050E8001F21F4D07140E80012002A7C
:10271000F5D12068143050E8001F21F0010140E895
:102720000012002AF5D1202084F83D0084F83E00F4
:10273000002084F83C000320BDE8F0812068006898
:1027400036EA000004D00020B842CFD00020F3E7E2
:102750000120F9E70148FFF72FBC0000200000200E
:10276000FEE703B401984100009850EAC12018BF69
:1027700004204A0D18BF40F0010040F2FF72B2EB96
:10278000515F08BF40F00200012808BF052002B0D9
:1027900070470907090E002804DB00F1E02080F8EB
:1027A0000014704700F00F0000F1E02080F8141DC5
:1027B000704730380A2801D2012070470020704746
:1027C00086B0FFF7AFF8FFF72DFE14216846FDF73E
:1027D000CEFE4B480024016841F00201016001680F
:1027E00001F002010591016841F0010101600068FA
:1027F000444D00F0010005904FF40240CDE9000483
:10280000694628460294FEF77DFF40493E4808602D
:102810004FF4E130C1E901040C20CC60C1E904406F
:102820008C610846CC61FFF7FBFC08B172B6FEE78D
:102830004FF4004841462846FEF788FE344F354C99
:102840004FF480594FF47A7A304833A14430FDF781
:1028500093FD2E4982B2642344312C48FFF752FD88
:102860002C49091D081FFEF72DFE002841D02E49D6
:102870002068884206DA012241463846FFF73FF8D1
:10288000002205E0002241463846FFF738F80122D1
:1028900049463846FFF733F824496068884201DD2D
:1028A00023A100E026A12A48FDF766FD606800F03C
:1028B0007DF805460E46206800F078F841EC100BD4
:1028C00023480095CDE9016053EC102B21A132384B
:1028D000FDF752FD1E483238FDF72AFE1C4982B230
:1028E000642332390948FFF70DFD5046FEF7F8FE24
:1028F000AAE717481BA13238FDF73EFDEAE70000C2
:102900003038024000000240004800402000002013
:1029100000040240080000206D6F736F6B2072612D
:102920006B656E656B000000000048420000A0412E
:1029300042656C756D204B6572696E670000000022
:102940005375646168204B6572696E670000000012
:102950005E01002025302E326625302E326625732A
:10296000000000000D0A435243204572726F72212D
:102970000D0A000010B500290AD00878002807D0F9
:1029800005487844FEF78EF9002801D0002010BDDC
:102990000248784410BD0000FA010000F201000076
:1029A0000808A0F500114FEA3101704743004FEAD3
:1029B000D30C4FEA3C0C43401FBF40070CF1605161
:1029C00013F0FE4F70471CF0006F03D100200CF095
:1029D000004170470CF0004343EA507010B540EAE4
:1029E000CC0000F00EF800BF000000924FEA00019A
:1029F000FFF7D6BF4FF000414FF00000A1F50021D6
:102A000070470EF1020E2EF0030E5EF8044B2442C6
:102A100004D44FEA4102B2F17F4F11D84FEA40038C
:102A2000B3F17F4F0CD80ED14FEAD07CB2F17F4F7B
:102A30000CEB4C0C0CF1020C08BF4CEBD17C04E00D
:102A40004FF0080C01E04FEAD17C0CEB4C0324FA68
:102A500003F404F00704B4F1040C06D20EEB840C6A
:102A6000BDE810404CF0010C6047DFE80CF00708AF
:102A700002024FF00040A0F5800010BD0846420061
:102A800018BFD2F1807288BF00F0004010BD4FF037
:102A90004070E1EE100A7047FDF76CBE00000000C8
:102AA00000000000010203040607080900000000FE
:102AB00001020304040000080000000000000002FE
:102AC000000100001000000002400000000000A013
:102AD0000000000005400000000000C800000000E9
:102AE0000C4000000000409C000000001940000065
:102AF0000020BCBE0000000034400000BFC91B8E97
:102B000000000004B5400000504BCFD06607E2CF74
:102B1000010000006C4100003E8251AADFEEA734A4
:102B200001000000D9420000DCB5A0E23A301F9756
:102B3000FFFFFFFFB4450000FD25A0C8E9A3C14F7A
:102B4000FFFFFFFFFF3F00000000008000000000CB
:102B5000FF3F00000000008000000000982B0008EC
:102B60000000002020000000C4010008B82B00086D
:102B700020000020D0070000E00100081C00000039
:102B800043000000F8FFFFFF0C0000000E000000F3
:102B90000F0000002E0000000000000000000000F8
:102BA0000000000000000000010000001000000014
:082BB000000000000024F40005
:040000050800018965
:00000001FF
