:020000040800F2
:10000000080800204D02000863230008DB220008D6
:1000100061230008F3150008D9250008000000003E
:10002000000000000000000000000000C3230008E2
:100030003917000800000000C1230008C52300088C
:1000400067020008670200086702000867020008EC
:1000500067020008670200086702000867020008DC
:1000600067020008670200086702000867020008CC
:1000700067020008670200086702000867020008BC
:1000800067020008670200086702000867020008AC
:10009000670200086702000867020008670200089C
:1000A000670200086702000867020008670200088C
:1000B000670200086702000867020008670200087C
:1000C000670200086702000867020008670200086C
:1000D000670200086702000867020008670200085C
:1000E000670200086702000867020008670200084C
:1000F000670200086702000867020008670200083C
:10010000670200086702000867020008670200082B
:10011000670200086702000867020008670200081B
:10012000670200086702000867020008670200080B
:1001300067020008670200086702000867020008FB
:1001400067020008670200086702000867020008EB
:1001500067020008670200086702000867020008DB
:1001600067020008670200086702000867020008CB
:10017000670200086702000867020008000000002C
:10018000670200086702000800F002F800F04FF86C
:100190000AA090E8000C82448344AAF10107DA45E2
:1001A00001D100F044F8AFF2090EBAE80F0013F0E5
:1001B000010F18BFFB1A43F0010318475C2A000027
:1001C0007C2A0000103A24BF78C878C1FAD85207B8
:1001D00024BF30C830C144BF04680C6070470000C1
:1001E0000023002400250026103A28BF78C1FBD840
:1001F000520728BF30C148BF0B607047662902F024
:10020000A984642900F0FA80732900F0B0840020EA
:1002100070471FB502F099FC00F0AEFC040000200E
:10022000002102F005FCE0601FBD10B510BD00F01C
:10023000A3FD1146FFF7EDFF02F08CFA00F0C1FDBF
:1002400003B4FFF7F2FF03BC00F004FE0948804747
:1002500009480047FEE7FEE7FEE7FEE7FEE7FEE7A8
:10026000FEE7FEE7FEE7FEE704480549054A064BC0
:10027000704700004524000889010008080200209A
:1002800008080020080400200804002053EA020C9B
:1002900000F069802DE9F04B4FF00006002B1FBFE6
:1002A000B3FA83F503FA05F424FA05F65E4012BFAB
:1002B0001643B2FA82F502FA05F4C5F120051EBF15
:1002C00022FA05FC44EA0C04203556EA044C4FEAB5
:1002D000144418BF641C4FF000084FF0000990420E
:1002E00071EB030C39D3002919BFB1FA81F701FA78
:1002F00007F6B0FA80F700FA07F6C7F120071EBF2D
:1003000020FA07FC46EA0C062037B6FBF4FCA7EB04
:100310000507103F07F01F0BCBF120060CFA0BFB73
:100320002CFA06F644BFB3460026202FA4BF5E4633
:100330004FF0000B5BEA060C08BF4FF0010B19EB06
:100340000B09ABFB027C48EB0608C01B06FB02CC8A
:100350000BFB03CC71EB0C01C1E70B460246414697
:100360004846BDE8F08B13B54FF000004FF0000198
:10037000AFF30080BDE81C40704700000FB41CB50F
:10038000084B06AA7B4469460090059800F0C5FB1F
:1003900004460020694600F0D3FB20461CBC5DF8F3
:1003A00014FB0000B907000070B50C460546012A91
:1003B00005D02878800600D5EA69002302E00123F1
:1003C00005E05B1C934202D2E05C0028F9D1A869E9
:1003D000E618C01AA861286A184428622846AFF3B4
:1003E000008004E0D5E9012114F8010B9047B442E4
:1003F000F8D32846AFF3008070BD00002DE9F0412E
:100400000646002410687529314616A510D0AFF3B2
:100410000080002802DA404213A507E031688A070D
:1004200001D512A502E0490704D511A5012401E078
:10043000AFF3008000210A2206F1240709E0B0FB97
:10044000F2FCB0FBF2F302FB1C003030785418468B
:10045000491C0028F3D123462A463046BDE8F04126
:1004600000F0EDB8000000002D0000002B0000009F
:10047000200000002DE9F05F894604464FF0000A95
:10048000DFF824B1FB44C0F820A02046E16888478B
:1004900000287DD0252806D0D4E901219047206A84
:1004A000401C2062F1E700255F462046E16888474E
:1004B0002028064607DB312E05D2B81910F8200C8B
:1004C00008B10543F1E7A80701D525F00405C4F8F4
:1004D0001CA00027C4F818A02A2E09D0304602F02C
:1004E000A4F838B304EB8708303EC8F8186019E068
:1004F00059F8041B204604EB87029161E1688847A4
:10050000012F064618D1E069002820DA25F02005E1
:100510001DE0D8F8180000EB800006EB40003038F2
:10052000C8F818002046E1688847064602F07DF8C2
:100530000028EED1012F0AD02E2E08D12046E168E6
:1005400088477F1C0646022F45F02005C4DBA069C2
:10055000002803DA404245F00105A061E80701D018
:1005600025F01005A6B1A6F14100192802D82036C1
:1005700045F400654A463146204625604D46FFF762
:100580003DFE60B1012807D0ED1D25F0070000E019
:1005900007E000F1080978E705F1040975E730463E
:1005A0007AE7206ABDE8F09FE826000010B5431CFA
:1005B00002E010F8011B71B18107FAD14FF001324E
:1005C00002C88C1A8C4314EAC211F9D0C01A0A0668
:1005D00003D0C01E10BDC01A10BD0A0401D0801E79
:1005E00010BD0902FCD0401E10BD4FF0000200B546
:1005F000134694469646203922BFA0E80C50A0E846
:100600000C50B1F12001BFF4F7AF090728BFA0E8F3
:100610000C5048BF0CC05DF804EB890028BF40F8BF
:10062000042B08BF704748BF20F8022B11F0804F01
:1006300018BF00F8012B70477047704770472DE9CD
:10064000F0470D4699469246044600F12408016899
:10065000880604D5E06921F01001216000E0012046
:10066000A84201DD471B00E00027A1697A1902EBCF
:100670000900081AA0612078C00602D42046AFF312
:100680000080002608E0D4E901211AF8060090470E
:10069000206A401C761C20624E45F4DB2078C006A0
:1006A0000AD52046AFF3008006E0D4E901213020CE
:1006B0009047206A401C2062381EA7F10107F4DC35
:1006C00007E0D4E9012118F805009047206A401C92
:1006D0002062281EA5F10105F3DC2046AFF300805F
:1006E0002078000602D50220BDE8F0870120FBE754
:1006F00070472DE9FF4F0C461E464FF0FF378BB079
:10070000D2E90001DDF860800A908A46C1F30A55FB
:1007100005B93D46002108464FF00000BAF1000F30
:1007200000F4400005DA00EB80004FF4400101EADC
:1007300050004FEA9059B9F1010F00DDB9460A980F
:1007400050EA4A000ED044F61050A5F2FF3545435A
:100750002F14B8F1000F1ED07542291E1EDDC9F1FD
:1007600000021CE0B8F1010F4FF0000001D0302171
:1007700003E0F24305E02154401CB042FBDB30466D
:100780000022002121540B99C1F80880C1E9002002
:100790000FB0BDE8F08FBD1B6D1CDEE74A4600DAE6
:1007A000694206A800F072FA06AB93E8070003ABB3
:1007B00083E8070050460A9900F053FB8DE80700D4
:1007C000A0F500501F3800900398002D0ADD42F27A
:1007D0001F014A460844002303A90390684600F01D
:1007E000BCFD09E0A0F500504A461F38002303A9CC
:1007F0000390684600F0C6FD8DE807000004000C79
:1008000003D04FF0FF30410800E01046B8F1000F70
:1008100003D00022009215461EE0751E05D400F09C
:10082000AFF9303262556D1EF9D5B3460122084347
:1008300002D000227F1C04E02078302801D1002261
:100840007F1E002A099784D01DE0112D07DA00F0E1
:1008500097F9303262556D1C50EA0102F5D1084318
:1008600002D00098C8B10EE00021681E05E0235CAC
:10087000625C63542254401E491C8142F7DBAB4644
:10088000A81B401E0990002004F80B000B98099A41
:10089000C0F80880C0E9002B7AE711264FF0000865
:1008A00057E72DE9F04F88460446D21D22F0070194
:1008B00091B0D1E90001CDE90A0101F08EFE0246B6
:1008C0000B98C00F01D02D2007E02068810701D5CB
:1008D0002B2002E0202101EAC000032A099001D068
:1008E000072A05DB03464146204600F08FF90BE15D
:1008F0002078800601D5E06900E00620B8F1650F98
:10090000814606D0B8F1660F18D0B8F1670F70D1E4
:1009100031E00020B9F1110F009001DB112301E05B
:1009200009F101030AAA01A90CA8FFF7E2FEDDE91B
:100930000C70002609F10105834647E001204B4673
:1009400000904FF000470AAA01A90CA8FFF7D1FEBA
:10095000DDE90DB00C995D46002610B909F10100E2
:100960000D18B9EB050003D4C0F1FF3609F10105FC
:10097000A5EB09002BE0B9F1010F01DA4FF00109F5
:100980000020B9F1110F0090484601DD112300E06D
:1009900003460AAA01A90CA8FFF7ABFEDDE90C701B
:1009A0004D4600268346207800070AD4AB4500DA7E
:1009B0005D4601A8012D04DD411911F8011C302903
:1009C00007D04F4502DA17F1040F04DA01208246FE
:1009D0000FE06D1EEEE7002F02DCED1B3E4403E04E
:1009E000781CA84200DD7D1CB81B00F1010A4FF005
:1009F00000472078000703D4AA4501DB4FF0FF3AF7
:100A00000021B7F1004F0DF143088DF8431024D0B9
:100A100002202B23002F01DA7F422D230A21021E00
:100A2000A0F1010000DC5FB197FBF1FC97FBF1F254
:100A300001FB1C7C17460CF1300C08F801CDEEE7E9
:100A4000A8F1010003702188090501D5452100E0C6
:100A50006521A0F1010800F8011C09980FA9A1EB7C
:100A60000807FF1D00B10120411901EBEA70A169DF
:100A70003844081A401EA0612078C00602D42046DF
:100A8000AFF30080099828B1D4E901219047206A8A
:100A9000401C20622078C00622D52046AFF300809B
:100AA0001EE0002E04DBB34502DD01A8805D00E0FE
:100AB0003020D4E901219047206A401C2062761C36
:100AC000AAF101005FEA000A0AD100F055F8C068F7
:100AD0000168405CD4E901219047206A401C2062F3
:100AE000281EA5F10105DCDC07E0D4E9012118F896
:100AF000010B9047206A401C2062381EA7F10107B5
:100B0000F3DC2046AFF30080032011B041E6000083
:100B100001694A1C02610878704700B58FB0CDE9C1
:100B200001310021059105497944CDE903101146B1
:100B30006846FFF79FFC0FB000BD0000E5FFFFFF18
:100B40000A6802F8010B0A60704710B5436913B1D7
:100B5000AFF3008001E0FFF727FC012010BD127801
:100B600000F124010A7000224A700122EDE71168A9
:100B70004FF0FF32E9E7000000487047C80100204D
:100B800030B5B0F10A024FEA900E71F100034EEA5F
:100B9000817EB0EB0E0061EB91014FEA101E4EEA30
:100BA000017E10EB0E0041EB11114FEA102E4EEAC0
:100BB000016E10EB0E0041EB11214FEA104E4EEA90
:100BC000014E10EB0E0041EB1141401841F10001C4
:100BD0004FEAD00040EA41704FEAD10110EB8005A6
:100BE0004FEA810444EA907444EB01046D1944EB2C
:100BF0000404521BA3414FF0000348BF0A3200D542
:100C000030BD401C41F1000130BD00002DE9F04134
:100C10001F46044603260168072A01F4006004DB2E
:100C200008B116A505E016A503E008B115A500E07A
:100C300015A521F010002060A069C01EA0610FB1B1
:100C4000401EA0612046AFF300804FB1D4E90121DE
:100C500038469047206A401C2062C01C206206E093
:100C6000206AFAE7D4E9012115F8010B9047761EB6
:100C7000F8D22046AFF30080BDE8F0814E414E002F
:100C80006E616E00494E4600696E66002DE9F047C0
:100C9000814616468AB0354878440DC88DE80D0067
:100CA00032487844801C03AC0DC884E80D0041F63E
:100CB0009B300844372190FBF1F290FBF1F5A5F150
:100CC000800501FB12041B3C02D56442012000E0B8
:100CD0000020DFF898A080460027FA44AAF1BE0A57
:100CE0000EE0E0070AD03246684607EB47010123D1
:100CF0000AEB810100F046FB8DE8070064107F1CC1
:100D0000002CEED1194F7F44AE3F19E0E80715D013
:100D100007EB04100DF1180A90E80E008AE80E00A7
:100D2000C068F04201D1981908903246012306A903
:100D300003A800F027FB03AB83E807006D10641CD9
:100D4000002DE3D14FF0010332466946B8F1000FA0
:100D500003A802D000F001FB01E000F013FBC9E999
:100D60000001C9F808200AB0BDE8F087641F000040
:100D700000487047A80100207546FFF7F9FFAE460E
:100D800005006946534620F00700854618B020B597
:100D9000FFF76AFABDE820404FF000064FF0000769
:100DA0004FF000084FF0000B21F00701AC46ACE813
:100DB000C009ACE8C009ACE8C009ACE8C0098D4680
:100DC000704710B50446AFF300802046BDE81040E0
:100DD000FFF736BA4FF0013C50F8042B51F8043BB2
:100DE0009A4221D1A2EB0C03934313EACC1317D1FF
:100DF00050F8042B51F8043B9A4215D1A2EB0C0396
:100E0000934313EACC130BD150F8042B51F8043B55
:100E10009A4209D1A2EB0C03934313EACC13DBD023
:100E20004FF00000704700BFD01A01BAB1FA81F14B
:100E300001F0180122FA01F0CB40C1F12001DBB230
:100E4000C0B2C01A2CFA01F3D11A914311EAC311AE
:100E5000E6D1704701491820ABBEFEE7260002002C
:100E600070475FEA400C08BF91F0000F4FEA8C23F7
:100E70004FEAC12243EA51514FEA1C5018BF00F516
:100E8000F0404FEA300018BF41F000415FEA6C5C6F
:100E900000F02980BCF1FF3F08BF40F08040704760
:100EA000130C06BF12044FF0100C4FF0000C130E81
:100EB00004BF12020CF1080C130F04BF12010CF155
:100EC000040C930F04BF92000CF1020CD30F04BF6B
:100ED00052000CF1010C11464FF00002A0F11F006E
:100EE000A0EB0C00704711F0004F08BF704731F0C5
:100EF00000413FF4D5AF0B0C06BF09044FF0100CB6
:100F00004FF0000C0B0E04BF09020CF1080C0B0F84
:100F100004BF09010CF1040C8B0F04BF89000CF114
:100F2000020CCB0F04BF49000CF1010CCCF12003E3
:100F3000A0EB0C0022FA03F302FA0CF241EA0301DF
:100F400000F10100704720F07F4C80EA030023F09D
:100F50007F47ACEB070303F57C5300F0004003F13F
:100F6000FF032DE980494FEA154B09B44FEA1443BA
:100F700025EA0B4E24EA03480FF2042606EB13275A
:100F800049083E785FEA320203FB0667C7F50007AF
:100F900007FB06F64FEA54374FEAD64606F102063B
:100FA00007FB066CCCF1005C4FEA1C472CEA074CAF
:100FB00007FB06F40CFB06F504EB15464FEA961604
:100FC00034BF00204FF000404FEAD13706FB07FC4A
:100FD0004FEA1C4C0CFB0BF7D21B03FB0CF761EB2D
:100FE00007010CFB0EF7B0EB074072EB17420CFB4E
:100FF00008F734BFA2EB0742B2EB074261EB17419F
:101000004FEA0C444FEA910706FB07FC4FEA1C4CE1
:101010000CFB0BF7B0EBC74072EB573203FB0CF73E
:1010200034BFA2EBC742B2EBC74261EB57310CFBB6
:101030000EF7B0EBC70072EB57720CFB08F734BF2A
:10104000A2EBC702B2EBC70261EB5771039F4FEAF5
:10105000816141EA921104EBCC044FEAD1374FEAA7
:10106000826206FB07FC42EA90124FEA80604FEA78
:101070001C4C0CFB0BF7D21B03FB0CF761EB0701BD
:101080000CFB0EF7B0EB074072EB17420CFB08F7B6
:1010900034BFA2EB0742B2EB074261EB17414FEAC4
:1010A0008C554FEA910704EB9C2406FB07FC4FEAA2
:1010B0001C4C0CFB0BF7B0EBC74072EB573203FB39
:1010C0000CF734BFA2EBC742B2EBC74261EB57311A
:1010D0000CFB0EF7B0EBC70072EB57720CFB08F776
:1010E00034BFA2EBC702B2EBC70261EB577115EB3D
:1010F0004C254FEA816141EA92114FEA82624FEA40
:10110000D13742EA901206FB07FC44F100044FEA93
:1011100080604FEA1C4C0CFB0BF7D21B03FB0CF757
:1011200061EB07010CFB0EF7B0EB074072EB1742C7
:101130000CFB08F734BFA2EB0742B2EB074261EBAE
:10114000174115EB1C154FEA813141EA92414FEAF4
:10115000823242EA90424FEA80304FEA0C7644F104
:10116000000448EA03434EEA0B484FF0000EB2EB8E
:10117000080C71EB030724BF624639464EEB0E0E96
:101180004FF0000B0018524149414BEB0B0BB2EBF7
:10119000080C71EB03077BF1000B24BF6246394654
:1011A0004EEB0E0E4FF0000B0018524149414BEB35
:1011B0000B0BB2EB080C71EB03077BF1000B24BFA8
:1011C000624639464EEB0E0E51EA020718BF46F052
:1011D000010616EB0E7655F1000254F1000103D51D
:1011E000BDE88901BDE80088BDE88901BDE8004887
:1011F000B619524141EB0101A3F101037047808010
:101200007F7E7D7C7B7A7978777676757473727160
:1012100071706F6E6E6D6C6C6B6A6A696868676618
:1012200066656464636362616160605F5F5E5E5DAA
:101230005D5C5C5B5B5A5A5959585857575656551E
:1012400055555454535352525251515050504F4F80
:101250004F4E4E4D4D4D4C4C4C4B4B4B4A4A4A49D0
:101260004949484848474747474646464545454413
:101270004444444343434342424242414141002BA0
:101280009C4630D477002BD01CB54FEA370703B407
:101290004FF010004FF01001BAF1000F06D0BCF172
:1012A000000FDCBF40F0080040F008014FF00000E4
:1012B0000FBCBDE810400BF1010BBBF1010F08BFE3
:1012C0005FEA170722BF12F1010211F101014FF08D
:1012D000004143F1000300F0004043EA0000704782
:1012E000F9D35708D0E746EA064613F1400F4FEA14
:1012F00016461FDD13F1200FDFBF16430A460021FB
:1013000020335B42BED0C3F1200746EA064602FA0C
:1013100007F74FEA164646EA0706C3F1200722FA06
:1013200003F201FA07F721FA03F14FF0000342EA52
:101330000702A7E746EA020646EA06464FEA1646CD
:1013400046EA0106BCBF46EA0646360C4FF00003EB
:101350004FF000024FF0000194E72DE9804C9A46CF
:10136000934670B491E8380007C831EA400C48BF92
:1013700034EA430C03D5FFF7E6FDFFF780FFF0BC2E
:10138000BDE8008C2DE9804C9A46934670B491E8F4
:10139000380007C810F0804F08BF13F0804F03D10A
:1013A00000F005F8FFF76BFFF0BCBDE8008C20F003
:1013B0007F4780EA030023F07F4C07EB0C03A3F583
:1013C0007C5300F00040A3F1FE0392F0000F00F008
:1013D000B38095F0000F00F077802DE901494FEAC6
:1013E00011404FEA144621EA004800FB06FC24EABB
:1013F000064708FB06F607FB08F800FB07F718EBA3
:1014000006484CEB164C4FEA124B18EB07484FEAD4
:1014100015464CEB174022EA0B4E0BFB06FC25EA67
:1014200006470EFB06F607FB0EFE0BFB07F71EEB4F
:10143000064E4CEB164C4FF000061EEB074E4CEBE5
:10144000174B18EB0B0840F1000018EB0E0B58EB94
:10145000000840F100008F1A4FF000013CBFC94363
:10146000661B14BFB5EB040C00213CBFC943F61B3F
:101470004FEA17444EEA8E0E27EA04454FEA1C470E
:1014800004FB07622CEA074C05FB07F70CFB05F68B
:1014900004FB0CFC16EB074642EB174216EB0C461E
:1014A00042EB1C421BEB060658EB0202414146EAA6
:1014B0009E0601D5BDE80189B619524141EB0101F3
:1014C000A3F10103BDE801894FEA14454FEA114732
:1014D00024EA054621EA074C05FB07F406FB07F75B
:1014E0000CFB06F105FB0CFC11EB074144EB174428
:1014F0004FEA124711EB0C4144EB1C4422EA074C23
:1015000005FB07F206FB07F70CFB06F605FB0CFCD8
:1015100016EB074642EB174216EB0C4642EB1C4516
:101520006A1854F1000148BF7047B619524141EBA7
:101530000101A3F10103704795F0000F37D04FEA86
:1015400011424FEA144721EA024624EA074C02FB03
:1015500007F106FB07F70CFB06F402FB0CFC14EB8F
:10156000074441EB17414FEA154714EB0C4441EB9C
:101570001C4125EA074C02FB07F506FB07F70CFBAD
:1015800006F602FB0CFC16EB074645EB174516EB7F
:101590000C4645EB1C42121951F1000148BF70473F
:1015A000B619524141EB0101A3F1010370474FEA23
:1015B00014454FEA114724EA054621EA074C05FB8A
:1015C00007F106FB07F70CFB06F24FF0000605FBE0
:1015D0000CFC12EB074241EB174112EB0C4251EBB2
:1015E0001C4148BF7047921841EB0101A3F1010370
:1015F0007047FEE77CB505460C46002000F0B2FEC1
:10160000002000F0D3FE4FF4FA7000F097F80120AC
:1016100000F0CCFE1E2000F091F8012000F0A2FEA8
:10162000684600F03FF800231A466846815C521C69
:101630001944D2B2CBB2042AF8D39DF804009842E0
:1016400019D1BDF80200F2EE040A40BA00EE100A09
:10165000BDF800100120B8EE400A49BA80EE201A09
:1016600000EE101AB8EE400A85ED001A80EE201A3E
:1016700084ED001A7CBD00207CBD0000084A10B536
:10168000506000205180012404FA00F30B4201D085
:10169000107010BD401CC0B21028F5D310BD000062
:1016A000000000202DE9F0410646002427462820AE
:1016B00000F044F800F06EFE0028FBD000F06AFE57
:1016C0000028FBD11F254FF0010800BF00F062FE8B
:1016D0000028FBD0282000F031F800F05BFE10B1AC
:1016E00008FA05F0044300F055FE0028FBD16D1EFA
:1016F0006DB2002DEADA072500F04CFE0028FBD081
:10170000282000F01BF800F045FE18B108FA05F09B
:101710003843C7B200F03EFE0028FBD16D1E6DB20B
:10172000002DE9DA200E3070200C7070200AB070A5
:10173000F4703771BDE8F081704700000449054A34
:101740000968B1FBF2F14143491EFDD27047000028
:1017500020000020C0C62D0070B54379012B1CD09D
:10176000012646710223037105682B6802F01004FC
:1017700040F6FE72A2409343D1E900210A43A24001
:101780001A432A6001680A68C023A3409A430A608A
:10179000067100214171084670BD022070BD70B510
:1017A000040003D02079002510B105E0012070BDB0
:1017B0006571204600F008F80220207125610120A3
:1017C0002071002070BD000010B586B004461421C1
:1017D0006846FEF70AFF1149206888421CD110486C
:1017E0000021026842F000520260006800F00050E0
:1017F00005900B481038026842F001020260006850
:1018000000F001000590102000900320CDE90101B7
:101810006946044800F056F806B010BD0074004058
:10182000403802400000024018B504680094006887
:10183000104421B1143000900360002018BD08301E
:10184000F9E770B54279012A1ED0012242710223C4
:1018500003710468266801F0100302FA03F52E43B1
:1018600026600029016811D00C6804F470153C242E
:101870009C40A54203D14B6843F002034B600271C8
:1018800000214171084670BD022070BD0B68C3F392
:1018900083030F2BF3D14B6843F00103EEE7000005
:1018A00070B5044600F010F90546601C02D00448EB
:1018B0000078044400F008F9401BA042FAD370BD40
:1018C000140000202DE9F84FDFF8BCA1002201250B
:1018D00003264FF00F090AF1040BAAF1040E00BF12
:1018E0000B6805FA02F42340A34270D10F7907F088
:1018F0000307012F01D0022F16D187684FEA420853
:1019000006FA08FC27EA0C07D1F80CC00CFA08FC10
:101910004CEA070CC0F808C04768A7430C79C4F329
:10192000001494403C4344600C79E443A4070AD07B
:10193000C4684FEA420C06FA0CF7BC438F6807FAFA
:101940000CF72743C7600C7904F00304022C12D172
:10195000D40800EB840CDCF820405707FF0E09FA8E
:1019600007F824EA0804D1F8108008FA07F848EAD2
:101970000408CCF8208004684FEA420C06FA0CF701
:10198000BC430F7907F0030707FA0CF727430760FA
:101990004C6814F4403F70D03C4C276847F48047B3
:1019A0002760246822F0030704F480440094384C34
:1019B00007EB040CDCF8084897074FEA177809FA98
:1019C00008F7BC43334FB84202D1002724E054E06B
:1019D000314FB84201D101271EE0304FB84201D14A
:1019E000022719E02E4FB84201D1032714E02D4FF2
:1019F000B84201D104270FE02B4FB84201D105278F
:101A00000AE02A4FB84201D1062705E0284FB84224
:101A100001D1072700E0082707FA08F72743CCF889
:101A20000878DAF800405746D1F804C09C435FEAD2
:101A3000CC2C00D51C433C60DBF800405F46D1F85D
:101A400004C09C435FEA8C2C00D51C433C60DEF84C
:101A500000407746D1F804C09C435FEA8C3C00D537
:101A60001C433C60084F083F3C68D1F804C09C43CD
:101A70005FEACC3C00D51C433C60521C102AFFF4AA
:101A80002FAFBDE8F88F0000083C01404438024009
:101A90000030014000000240000402400008024003
:101AA000000C0240001002400014024000180240E6
:101AB000001C02400069084000D0012070470AB1B4
:101AC000816170470904FBE70148806870470000A6
:101AD0001400002002488168027811448160704738
:101AE000140000200B4810B5016841F4007101603A
:101AF000016841F480610160016841F48071016016
:101B0000032000F061F80F2000F006F800F024F840
:101B1000002010BD003C024070B50D4D04464FF44E
:101B20007A712878B1FBF0F00A490968B1FBF0F04E
:101B300000F0FEFA48B9102C07D200222146501EB0
:101B400000F022F800206C6070BD012070BD000024
:101B500014000020200000200A4808B5016841F464
:101B600080410160006800F4804000900548001F3B
:101B7000016841F080510160006800F080500090E1
:101B800008BD000044380240F0B40E4B1B680C4600
:101B9000C3F30223C3F10705042D00D90425191D41
:101BA000072901D2002300E0DB1E012606FA05F119
:101BB000491E214099409E40761E16403143F0BC9C
:101BC00000F023BD0CED00E0064900F007020868B4
:101BD0004FF6FF03184040EA0220034A1043086012
:101BE000704700000CED00E00000FA052DE9F04719
:101BF0000E46050065D0DFF81481D8F80000F7B272
:101C000000F00700B04207D288F80070D8F8000052
:101C100000F00700B04254D128683D4C810712D52E
:101C2000400703D5206840F4E05020602878000782
:101C300003D5206840F4604020602068A96820F047
:101C4000F000084320602878C0072DD0304968682C
:101C50000839012812D0022813D0032811D00968AE
:101C6000890700292DDA216821F003010143216051
:101C7000FFF72AFF814641F2883A0EE0096889039E
:101C8000EFE709688901ECE7FFF71EFFA0EB090108
:101C9000514502D90320BDE8F0872068696800F04B
:101CA0000C00B0EB810FEFD1D8F80010404601F0E6
:101CB0000701B14207D90770006800F00700B04281
:101CC00001D00120E7E72878400705D52068E968BA
:101CD00020F4E050084320602878000706D52068EB
:101CE000296920F4604040EAC100206000F038F823
:101CF0002168084AC1F30311515CC84006490860D5
:101D000006480068FFF708FF0020C4E7003C0240D7
:101D100008380240582B000820000020180000203E
:101D20000448054900680968044AC1F38221515CEE
:101D3000C84070472000002008380240682B000887
:101D40000448054900680968044AC1F34231515CFE
:101D5000C84070472000002008380240682B000867
:101D6000154810B5006810F00C02144813D014493F
:101D7000042A0FD0082A0ED10F4C241F2268236892
:101D800002F03F025B0207D52068C0F38810A0FB79
:101D9000010106E0084610BD2168C1F38811A1FBCE
:101DA00000010023FEF772FA2168C1F30141491CCA
:101DB0004900B0FBF1F010BD083802400024F400E7
:101DC00040787D012DE9F84F04006ED02078DFF8CF
:101DD0004C93C007A9F104054AD009F10400016839
:101DE000C1F38101012908D00068C0F381000228F5
:101DF0000AD1D9F80000400206D52868800337D5FB
:101E000060680028E1D033E06068B0F5803F10D012
:101E1000B0F5A02F286810D020F480302860286802
:101E200020F4802028606068A8B1FFF74DFE0646C8
:101E30000DE0286840F48030F4E740F4802028600A
:101E4000F7E700BFFFF740FE801B642873D82868BF
:101E50008003F7D50CE0FFF737FE064605E000BF2C
:101E6000FFF732FE801B6428F0D828688003F7D47F
:101E70002078DFF8AC8280074FF0000A3ED5A748F3
:101E8000001D016811F00C0F08D00068C0F381003C
:101E900002280BD1D9F80000400207D42868800737
:101EA00016D5E068012800D112E033E1E068B8B14E
:101EB0000120C8F80000FFF707FE064605E000BF56
:101EC000FFF702FE801B0228C0D828688007F7D5DC
:101ED0002868216920F0F80040EAC10028600DE080
:101EE000C8F800A0FFF7F0FD064604E0FFF7ECFDA0
:101EF000801B02281FD828688007F7D420780007A5
:101F000022D5864F87486169703771B10121016020
:101F1000FFF7DAFD064604E0FFF7D6FD801B022836
:101F200009D838688007F7D50EE0C0F800A0FFF7A1
:101F3000CBFD064605E082E0FFF7C6FD801B0228C8
:101F40007DD838688007F7D42078400768D5DFF857
:101F5000CCB100270BF13C0BDBF80000C0000BD428
:101F6000DBF8001041F08051CBF80010DBF80000E6
:101F7000012700F0805000906B4E3068C00510D4EF
:101F8000306840F480703060FFF79EFD009005E0FF
:101F9000FFF79AFD0099401A022850D83068C00512
:101FA000F6D55E4EA0686C3601280FD00528306843
:101FB00010D020F001003060306820F00400306064
:101FC000A068B8B1FFF780FD00900FE0306840F0E6
:101FD0000100F4E740F004003060F7E7FFF774FD1C
:101FE0000099411A41F28830814266D830688007F2
:101FF000F4D50EE0FFF768FD009007E0FFF764FD01
:102000000099411A41F28830814256D830688007E1
:10201000F4D42FB1DBF8001021F08051CBF8001080
:10202000A069C8B33D49091D0968C1F381010229AE
:102030004AD00228504607D0C8F8600000E03CE0D3
:10204000FFF742FD04463BE04746C8F86000FFF753
:102050003BFD064605E000BFFFF736FD801B02286A
:102060002BD828688001F7D4D4E907010843A16A76
:102070002E4A490802EB0141626A41EA8211084393
:1020800094F82C1040EA0161C9F80010012038666C
:10209000FFF71AFD044606E03EE000BFFFF714FD1F
:1020A000001B022809D828688001F7D534E000BF5A
:1020B000FFF70AFD001B022802D90320BDE8F88FB4
:1020C00028688001F4D427E00128F7D0D9F800006F
:1020D000E26900F4800191421CD1226A00F03F01C4
:1020E000914217D147F6C071626A0140B1EB821F7D
:1020F00010D1A26A4FF0FF3300F4403103EB5202DB
:10210000B1EB024F06D194F82C1000F07060B0EBE8
:10211000016F01D00120D1E70020CFE70438024051
:1021200000004742800E4742007000400000FFFF61
:1021300010B5401EB0F1807F01D3012010BD4FF0DB
:10214000E02460610F21601700F05FFA0020A061B9
:1021500007202061002010BD70B5040004D094F861
:102160003D00002510B106E0012070BD84F83C5010
:10217000204600F023F8242084F83D002068C16840
:1021800021F40051C160204600F064F92068016923
:1021900021F4904101612068416921F02A014161E7
:1021A0002068C16841F40051C1602564202084F892
:1021B0003D0084F83E00002070BD000010B586B0E0
:1021C000044614216846FEF710FA14492068884234
:1021D00021D113480021026842F480220260006885
:1021E00000F4802005900E481038026842F0020288
:1021F0000260006800F0020005904FF4406000901B
:102200000220CDE9010103200390072004906946D4
:102210000448FFF757FB06B010BD0000004800401F
:1022200040380240000402402DE9F843044690F88B
:102230003D001F4616460D4620284CD1C5B1BEB103
:1022400094F83C00012846D0012084F83C004FF06F
:102250000008C4F84080212084F83D00FFF734FCDA
:10226000A6848146E684A068B0F5805F03D004E0D0
:102270000120BDE8F883206928B12E465FF00005F3
:1022800084F83C800EE00026FAE78021204600F02A
:1022900067F9A0B9AEB116F8010B21684860E08C6F
:1022A000401EE084E08C4B464FF00002009700286F
:1022B000EBD14FF04001204600F052F930B103203D
:1022C000D7E735F8020BC0F30800E6E7202084F8D2
:1022D0003D000020CDE70220CBE7FEE770B586B0D9
:1022E00014216846FEF781F91A480024016841F07C
:1022F00080010160016801F080010591016841F0F1
:1023000001010160016801F001010591016841F0DE
:10231000020101600068104E00F002004FF2180543
:102320000590002229463046FFF7C9FB01200095A1
:10233000CDE90104694630460394FFF7C3FA4FF430
:102340000040CDE90004694604480294FFF7BAFA58
:1023500006B070BD30380240000402400000024068
:10236000FEE7FEE700B50A4A85B0518800910021DA
:102370000391029110B1012803D003E001200190E4
:1023800000E0019169465068FFF79CFA05B000BD76
:1023900000000020044810B541884068FFF78AFB20
:1023A00000F0010010BD0000000000200200034802
:1023B0004188406800D00122FFF781BB0000002067
:1023C00070477047FFF786BB10B592B03021684662
:1023D000FEF70BF914210CA8FEF707F917480024A3
:1023E000016841F080510160006800F08050119058
:1023F0001348016841F4804101600068069400F4CC
:102400008040119002200090012003901020049041
:102410006846FFF7D7FC08B172B6FEE70F20CDE99A
:102420000C040E940F9400210CA81094FFF7DEFB0F
:10243000002801D072B6FEE712B010BD403802404D
:10244000007000400248016841F47001016070476B
:1024500088ED00E070B5044600680169E26821F487
:102460004051114301612169A068E2690843616933
:10247000114308432168CA6849F20C639A43024336
:10248000CA6020684169A26921F440711143416129
:1024900031492068884202D03049884202D1FFF792
:1024A0004FFC01E0FFF73CFCE269002319216425A1
:1024B0003226B2F5004F626828D0A0FB0101930FCD
:1024C0009200FDF7E3FE0146B0FBF5F06FF0180255
:1024D000504301EB800006EB0010B0FBF5F000F07C
:1024E000F002B1FBF5F002EB0012B1FBF5F06FF07A
:1024F0001803584301EB800006EB0010B0FBF5F029
:1025000000F00F0021681044886070BDA0FB01013D
:1025100092185B41FDF7BAFE0146B0FBF5F00201EF
:10252000B1FBF5F06FF01803584301EB800006EBA8
:10253000C000B0FBF5F000F0F80002EB4002B1FB88
:10254000F5F0584301EB800006EBC000B0FBF5F05E
:1025500000F00700D6E70000001001400014014021
:102560002DE9F041984617460E460446069D27E0A1
:10257000681C25D02DB1FFF7A7FAA0EB0800A842F0
:102580001ED920680C3050E8001F21F4D07140E8BB
:102590000012002AF5D12068143050E8001F21F005
:1025A000010140E80012002AF5D1202084F83D0006
:1025B00084F83E00002084F83C000320BDE8F08150
:1025C0002068006836EA000004D00020B842CFD06E
:1025D0000020F3E70120F9E7FEE703B4019841008A
:1025E000009850EAC12018BF04204A0D18BF40F0DF
:1025F000010040F2FF72B2EB515F08BF40F00200F1
:10260000012808BF052002B070470907090E0028FD
:1026100004DB00F1E02080F80014704700F00F00A8
:1026200000F1E02080F8141D704730380A2801D2EC
:10263000012070470020704710B5012000F006F817
:10264000BDE810404FF4FA6000F0EAB910B5044656
:10265000000900F049F804F00F0000F045F8BDE86B
:102660001040322000F0DCB910B50446000900F03B
:1026700051F804F00F0000F04DF8BDE81040322092
:1026800000F0CEB910B5084C012204212046FFF716
:1026900016FA0A2000F0C4F920460022BDE81040D6
:1026A0000421FFF70CBA0000000C024070B50D4683
:1026B0000446002201210B48FFF701FA5DB1012D0C
:1026C0000BD0022D0BD0032D0BD1D434E0B2BDE8DA
:1026D0007040FFF7BBBF8034F8E7C034F6E79434AE
:1026E000F4E770BD000C024010B504460022012141
:1026F0000748FFF7E4F906481430016821F0F001BB
:1027000041EA04110160BDE81040FFF7BBBF0000C3
:10271000000C024010B50446012211460748FFF79D
:10272000CEF906481430016821F0F00141EA0411A5
:102730000160BDE81040FFF7A5BF0000000C02409B
:1027400010B5044602E0641CFFF78EFF20780028D5
:10275000F9D110BD88B0FFF7C5F9FFF735FEFFF7D7
:10276000BDFD00247A490094784801940860084629
:10277000FFF715F808B172B6FEE70094002269462B
:1027800073480194FEF7E8FF08B172B6FEE770489F
:10279000704914300C2201604FF4E131C0E901149A
:1027A000C460C0E904428461A146C461FFF7D4FC5F
:1027B00008B172B6FEE700210846FFF777FF66A072
:1027C000FFF7BEFF01210020FFF770FF67A0FFF7B2
:1027D000B7FF02210020FFF769FF69A0FFF7B0FFF4
:1027E00003210020FFF762FF68A0FFF7A9FF41F275
:1027F0008830FFF755F8FFF71FFFFF2400215448EA
:10280000FFF71FF82346082200215148FFF70CF874
:102810004FF400416048FEF731FFDFF880A1604CC3
:102820004B4860A15830FDF7A9FD494982B25831A3
:102830006423A1F14400FFF7F7FC59490831081F50
:10284000FEF7D8FE002871D05A496068884207DA3E
:102850000122082155465046FFF731F9002206E0D3
:102860000022082155465046FFF729F90122102180
:102870002846FFF724F95049A068884206DD4FA199
:102880005248FDF77BFDC4F8009005E050A14F4889
:10289000FDF774FD01202060606800F0E5F841EC70
:1028A000100B2B4853EC102B4DA15830FDF766FD53
:1028B0008046A06800F0D8F841EC100B244853EC97
:1028C000102B47A15830FDF759FD0746204846A177
:1028D00058302268FDF752FD8346A06800F0C4F826
:1028E00005460E46606800F0BFF80A4601462368B8
:1028F0008DE886003548CDE906B3CDE90456424659
:102900003AA13238FDF73AFD30483238FDF74EFE35
:102910002E4982B232396423A1F58670FFF784FC18
:102920004FF47A70FEF7BCFF7AE7FFE7042035A288
:10293000CDE9000233A10246CDE90201234831A3CB
:1029400032A13238FDF71AFDDEE7000000740040C6
:10295000240000200048004050454E474552494E53
:10296000472050414B4149414E00000044454E4EE6
:10297000412059554E414E204F4B54415241000089
:102980003320443320454C494E204200313330330C
:10299000313931303533000000000240000402407C
:1029A000080000206D6F736F6B2072616B656E6540
:1029B0006B000000000048420000A04142656C75B9
:1029C0006D204B6572696E67000000007601002083
:1029D0005375646168204B6572696E670000000082
:1029E00025302E3266000000256400004154256425
:1029F00025302E326648256425302E326644256403
:102A0000256442006E756C6C000000004154256422
:102A1000257348256425734425642573420000000E
:102A200000EB401101EBC010401EFDD270470000CA
:102A300010B500290AD00878002807D00548784446
:102A4000FEF7C8F9002801D0002010BD02487844E4
:102A500010BD0000FA010000F20100000808A0F516
:102A600000114FEA3101704743004FEAD30C4FEA9F
:102A70003C0C43401FBF40070CF1605113F0FE4F68
:102A800070471CF0006F03D100200CF0004170472C
:102A90000CF0004343EA507010B540EACC0000F05F
:102AA0000EF800BF000000924FEA0001FFF7D6BF0A
:102AB0004FF000414FF00000A1F5002170470EF1EA
:102AC000020E2EF0030E5EF8044B244204D44FEAAB
:102AD0004102B2F17F4F11D84FEA4003B3F17F4F6B
:102AE0000CD80ED14FEAD07CB2F17F4F0CEB4C0CDE
:102AF0000CF1020C08BF4CEBD17C04E04FF0080C49
:102B000001E04FEAD17C0CEB4C0324FA03F404F00F
:102B10000704B4F1040C06D20EEB840CBDE810409F
:102B20004CF0010C6047DFE80CF0070802024FF0A0
:102B30000040A0F5800010BD0846420018BFD2F149
:102B4000807288BF00F0004010BD4FF04070E1EE91
:102B5000100A7047FDF7A5BE00000000000000004D
:102B60000102030406070809000000000102030433
:102B70000400000800000000000000020001000046
:102B80001000000002400000000000A00000000053
:102B900005400000000000C8000000000C400000DC
:102BA0000000409C00000000194000000020BCBE56
:102BB0000000000034400000BFC91B8E000000046C
:102BC000B5400000504BCFD06607E2CF01000000B7
:102BD0006C4100003E8251AADFEEA73401000000E4
:102BE000D9420000DCB5A0E23A301F97FFFFFFFF9B
:102BF000B4450000FD25A0C8E9A3C14FFFFFFFFFBA
:102C0000FF3F00000000008000000000FF3F0000C8
:102C10000000008000000000542C0008000000208C
:102C200024000000C4010008782C000824000020C3
:102C3000E4070000E00100081C0000004300000061
:102C4000F8FFFFFF0C0000000E0000000F00000066
:102C50002E00000000000000000000000000000046
:102C60000000000000000000010000001000000053
:082C7000000000000024F40044
:040000050800018965
:00000001FF
