:020000040800F2
:100000006808002049020008CD1C0008C91C00082F
:10001000CB1C0008CB0A0008A92100080000000042
:10002000000000000000000000000000D11C0008DB
:100030007D0B000800000000CF1C0008D31C000846
:1000400063020008630200086302000863020008FC
:1000500063020008630200086302000863020008EC
:1000600063020008630200086302000863020008DC
:10007000CD0A00086302000863020008630200085A
:1000800063020008630200086302000863020008BC
:1000900063020008630200086302000863020008AC
:1000A000630200086302000863020008630200089C
:1000B000630200086302000863020008630200088C
:1000C000630200086302000863020008630200087C
:1000D0006302000863020008630200089D21000813
:1000E000630200086302000863020008630200085C
:1000F000630200086302000863020008630200084C
:10010000630200086302000863020008630200083B
:10011000630200086302000863020008630200082B
:10012000630200086302000863020008630200081B
:10013000630200086302000863020008630200080B
:1001400063020008630200086302000863020008FB
:1001500063020008630200086302000863020008EB
:1001600063020008630200086302000863020008DB
:100170006302000863020008630200080000000038
:10018000630200086302000800F002F800F04DF876
:100190000AA090E8000C82448344AAF10107DA45E2
:1001A00001D100F042F8AFF2090EBAE80F0013F0E7
:1001B000010F18BFFB1A43F0010318479C210000F0
:1001C000BC210000103A24BF78C878C1FAD8520781
:1001D00024BF30C830C144BF04680C6070470000C1
:1001E0000023002400250026103A28BF78C1FBD840
:1001F000520728BF30C148BF0B607047642900F028
:100200002F81732900F08D82002070471FB502F006
:100210008DF800F0F7FB04000020002102F070F8D8
:10022000401C60601FBD10B510BD00F0C6FB11463C
:10023000FFF7ECFF01F0CAFF00F0F6FB03B4FFF795
:10024000F2FF03BC00F03AFC094880470948004728
:10025000FEE7FEE7FEE7FEE7FEE7FEE7FEE7FEE776
:10026000FEE7FEE704480549054A064B70470000D3
:10027000551D000889010008680200206808002058
:10028000680400206804002053EA020C00F0698032
:100290002DE9F04B4FF00006002B1FBFB3FA83F59A
:1002A00003FA05F424FA05F65E4012BF1643B2FACB
:1002B00082F502FA05F4C5F120051EBF22FA05FCFD
:1002C00044EA0C04203556EA044C4FEA144418BFA3
:1002D000641C4FF000084FF00009904271EB030CD2
:1002E00039D3002919BFB1FA81F701FA07F6B0FA3C
:1002F00080F700FA07F6C7F120071EBF20FA07FCB7
:1003000046EA0C062037B6FBF4FCA7EB0507103FC6
:1003100007F01F0BCBF120060CFA0BFB2CFA06F6AC
:1003200044BFB3460026202FA4BF5E464FF0000B0B
:100330005BEA060C08BF4FF0010B19EB0B09ABFB96
:10034000027C48EB0608C01B06FB02CC0BFB03CC6F
:1003500071EB0C01C1E70B46024641464846BDE839
:10036000F08B13B54FF000004FF00001AFF30080A9
:10037000BDE81C40704700000FB41CB5084B06AA2E
:100380007B4469460090059800F0A1F904460020DE
:10039000694600F0AFF920461CBC5DF814FB000074
:1003A000710300002DE9F0410E4604460020206252
:1003B0002046E168884730B3252805D0D4E90121DB
:1003C0009047206A401CF2E7E168204600278847F2
:1003D000050018D0A5F14100192802D820354FF4A6
:1003E00000673246294620462760FFF707FF40B1E5
:1003F000012804D0F61D26F007060836D8E7361D7A
:10040000D6E72846DAE7206ABDE8F08170B50C46E9
:100410000546012A05D02878800600D5EA69002320
:1004200002E0012305E05B1C934202D2E05C00285D
:10043000F9D1A869E618C01AA861286A1844286288
:100440002846AFF3008004E0D5E9012114F8010B40
:100450009047B442F8D32846AFF3008070BD000047
:100460002DE9F0410646002410687529314616A58D
:1004700010D0AFF30080002802DA404213A507E055
:1004800031688A0701D512A502E0490704D511A5F4
:10049000012401E0AFF3008000210A2206F12407C5
:1004A00009E0B0FBF2FCB0FBF2F302FB1C003030C1
:1004B00078541846491C0028F3D123462A46304672
:1004C000BDE8F04100F0A4B8000000002D000000DD
:1004D0002B0000002000000070B5064600F094F8E4
:1004E0000468054630460A22002100F01EF92C60FF
:1004F00070BD10B5431C02E010F8011B71B18107FB
:10050000FAD14FF0013202C88C1A8C4314EAC2119E
:10051000F9D0C01A0A0603D0C01E10BDC01A10BD03
:100520000A0401D0801E10BD0902FCD0401E10BD7F
:10053000431A28BF9A4240F23081032A10441144E2
:1005400040F2268010F0030F1EBF11F8013D521E2D
:1005500000F8013D10F0030F7FF4F6AF11F0030334
:1005600000F07381083AC0F00B8051F8043D083A5E
:1005700051F804CD40F8043D40F804CDFFF7F3BF37
:10058000121D5CBF51F8043D40F8043DAFF30080FC
:10059000D20724BF11F8013D11F801CD48BF11F871
:1005A000012C24BF00F8013D00F801CD48BF00F840
:1005B000012C70474FF0000200B513469446964652
:1005C000203922BFA0E80C50A0E80C50B1F1200166
:1005D000BFF4F7AF090728BFA0E80C5048BF0CC014
:1005E0005DF804EB890028BF40F8042B08BF704772
:1005F00048BF20F8022B11F0804F18BF00F8012BE4
:1006000070477047704770470048704708020020E5
:100610002DE9F0470D4699469246044600F124081C
:100620000168880604D5E06921F01001216000E02E
:100630000120A84201DD471B00E00027A1697A19CB
:1006400002EB0900081AA0612078C00602D42046F7
:10065000AFF30080002608E0D4E901211AF8060073
:100660009047206A401C761C20624E45F4DB2078BF
:10067000C0060AD52046AFF3008006E0D4E9012188
:1006800030209047206A401C2062381EA7F10107E5
:10069000F4DC07E0D4E9012118F805009047206A4E
:1006A000401C2062281EA5F10105F3DC2046AFF3B3
:1006B00000802078000602D50220BDE8F0870120E6
:1006C000FBE7000001694A1C02610878704700B529
:1006D0008FB0CDE901310021059105497944CDE97B
:1006E000031011466846FFF75DFE0FB000BD000025
:1006F000E5FFFFFF0A6802F8010B0A60704710B5BA
:10070000436913B1AFF3008001E0FFF77FFE0120E2
:1007100010BD127800F124010A7000224A700122F3
:10072000EDE711684FF0FF32E9E72DE9F047914618
:100730000F4680460446002614F8015B2DB100F0F8
:10074000B3F80068405DC007F6D12B2D02D02D2DE7
:1007500018D0641E4A463946204600F0ADF827B14D
:100760003968A14201D1C7F800804FF00204710539
:100770000BD54042002803DDFFF746FF0460A007C9
:10078000BDE8F08746F48066E4E70028F8DAFFF772
:100790003BFF04606FF00040F2E7032A40F2308034
:1007A00010F0030C00F0158011F8013BBCF1020FB2
:1007B000624498BF11F801CB00F8013B38BF11F833
:1007C000013BA2F1040298BF00F801CB38BF00F84A
:1007D000013B11F0030300F0BE80083AC0F008802E
:1007E00051F8043B083A51F804CBA0E80810F5E7AB
:1007F000121D5CBF51F8043B40F8043BAFF300808E
:10080000D20724BF11F8013B11F801CB48BF11F802
:10081000012B24BF00F8013B00F801CB48BF00F8D2
:10082000012B7047431A28BF9A4240F2948010442B
:1008300010F0030F11441EBF11F8013D521E00F8C5
:10084000013D10F0030F7FF4F6AF103AC0F00A80BC
:1008500010B531E91850103A20E91850BFF4F9AF3B
:10086000BDE81040530724BF31E9081020E9081003
:1008700044BF51F8043D40F8043D12F0030F08BF97
:100880007047D20728BF31F8023D48BF11F8012C4C
:1008900028BF20F8023D48BF00F8012C7047000037
:1008A000004870470802002010B500F0ABF8001DAA
:1008B00010BD00BF4D1A00002DE9F05F82461546BD
:1008C0008B4600270AF10104B9460078302801D090
:1008D0009DB113E014F8010B0127782803D05828A4
:1008E00001D045B10AE00DB1102D07D1002714F851
:1008F000010B102502E0082500E00A250026B0467D
:100900000EE005FB080005FB06F101271FFA80F841
:1009100001EB1046B6F5803F00D3B94614F8010B41
:10092000294600F073F80028EBDABBF1000F05D080
:100930000FB1641E00E05446CBF80040B9F1000F3F
:1009400006D0FFF761FE02210160C81EBDE8F09FDE
:1009500048EA0640FAE710B5203AC0F00B80B1E84B
:100960001850203AA0E81850B1E81850A0E81850E4
:10097000BFF4F5AF5FEA027C24BFB1E81850A0E8ED
:10098000185044BF18C918C0BDE810405FEA827C07
:1009900024BF51F8043B40F8043B08BF7047D2071E
:1009A00028BF31F8023B48BF11F8012B28BF20F8BF
:1009B000023B48BF00F8012B70477546FFF770FFF8
:1009C000AE4605006946534620F00700854618B03C
:1009D00020B5FFF747FCBDE820404FF000064FF080
:1009E00000074FF000084FF0000B21F00701AC4664
:1009F000ACE8C009ACE8C009ACE8C009ACE8C00983
:100A00008D46704700487047280200203A2800D2DF
:100A1000303820F02002412A01D3A2F13700884269
:100A200001D34FF0FF30704710B50446AFF300809C
:100A30002046BDE81040FFF701BC00004FF0013C2C
:100A400050F8042B51F8043B9A4221D1A2EB0C033D
:100A5000934313EACC1317D150F8042B51F8043BFD
:100A60009A4215D1A2EB0C03934313EACC130BD19A
:100A700050F8042B51F8043B9A4209D1A2EB0C0325
:100A8000934313EACC13DBD04FF00000704700BF54
:100A9000D01A01BAB1FA81F101F0180122FA01F07D
:100AA000CB40C1F12001DBB2C0B2C01A2CFA01F375
:100AB000D11A914311EAC311E6D1704701491820B8
:100AC000ABBEFEE7260002007047FEE7014800F0DB
:100AD000B3B80000A801002001681823CAB2103A78
:100AE000B2FBF3F2054B6FF30901032A9B5CC3656C
:100AF00000D9091D816508467047000036230008AB
:100B000010B5014600208B698A6A4FF0C07453B15A
:100B1000B3F5005F15D072B1012A0CD0022A0AD0B9
:100B2000032A09D104E01AB1012A06D0022A03D10E
:100B3000C96AC90100D5012010BDC96AA142FAD015
:100B400010BD002AF7D0012AF2D0022AF3D0032ADE
:100B5000F3D010BD30B50468256825F480252560E4
:100B6000046863608368402B036803D09960006861
:100B7000C26030BD9A600068C16030BD704772B617
:100B8000FEE72DE9F0410446876D00F0D1FA0646F4
:100B900094F835000025022806D08020606584F88E
:100BA00034500120BDE8F0812068016821F0160171
:100BB00001602068416921F080014161206C08B921
:100BC000A06C20B12068016821F008010160206854
:100BD000016821F0010101600CE000F0A9FA801B1E
:100BE000052807D920206065032084F8350084F8A3
:100BF0003450D7E720680068C007EED194F85C1045
:100C00003F208840B860012084F8350084F83450D3
:100C10000020C7E790F83510022903D080214165F4
:100C200001207047052180F835100068016821F027
:100C300001010160002070472DE9F84304464FF0A0
:100C40000009CDF8009063484FF41651A56D006877
:100C5000B0FBF1F72E6894F85C10082000FA01F15F
:100C600031420FD021680A6852070BD50A6822F07A
:100C700004020A6094F85C108840A860606D40F03F
:100C80000100606594F85C104FF0010808FA01F06B
:100C9000304208D021684969090604D5A860606D12
:100CA00040F00200606594F85C10042088403042F7
:100CB00008D021680968890704D5A860606D40F0F4
:100CC0000400606594F85C1010208840304218D011
:100CD00021680968090714D5A860206801684903DC
:100CE00004D50068000308D5A16C07E00168C905B8
:100CF00003D4016821F008010160216C09B120468C
:100D0000884794F85C1020208840304231D0216818
:100D10000968C9062DD5A86094F835000528206813
:100D2000016806D0490347D5006800031DD4616CF3
:100D30001CE021F0160101602068416921F080016A
:100D40004161206C08B9A06C20B12068016821F0D5
:100D50000801016094F85C103F208840A86084F886
:100D6000358084F83490216D1FE0E16B09B1204695
:100D70008847606D00282BD0606DC00714D0052017
:100D800084F835002068016821F0010101600098B5
:100D9000401C0090B84203D820680068C007F6D114
:100DA00084F8358084F83490E16C002910D001B0CB
:100DB0002046BDE8F04308470168C905D5D401685D
:100DC00021F01001016084F8358084F83490CCE77C
:100DD000BDE8F883200000202DE9F041044600F032
:100DE000A7F906465CB1022084F83500002584F896
:100DF00034502068016821F0010101600DE00120FC
:100E0000BDE8F08100F094F9801B052805D9202069
:100E10006065032084F83500F2E720680068C007A9
:100E2000F0D12268116820480140D4E90103184339
:100E3000D4E903363343184363691843A36918435D
:100E4000E3691843236A18430843616A042903D1FC
:100E5000D4E90B1319430843106020684069666A9F
:100E600020F0070130460E43012704280CD1A06A68
:100E70000643E06A40B12046FFF742FE20B1402021
:100E8000606584F83570BAE7206846612046FFF750
:100E900023FE94F85C203F2191408160656584F8D1
:100EA00035700020ACE700003F8010F02DE9F041E4
:100EB0000446866D90F83400002501280DD00120ED
:100EC00084F8340094F835700020012F07D084F89E
:100ED000340002252846BDE8F0810220FBE7022706
:100EE00084F8357060652046FFF734FE94F85C1096
:100EF0003F208840B0602068016841F01601016021
:100F0000206C20B12068016841F008010160206870
:100F1000016841F001010160DCE7000070B50446A2
:100F200000F006F90546601C02D00448007804442D
:100F300000F0FEF8401BA042FAD370BD1400002060
:100F40002DE9F84FDFF8BCA10022012503264FF060
:100F50000F090AF1040BAAF1040E00BF0B6805FA91
:100F600002F42340A34270D10F7907F00307012F49
:100F700001D0022F16D187684FEA420806FA08FC12
:100F800027EA0C07D1F80CC00CFA08FC4CEA070C55
:100F9000C0F808C04768A7430C79C4F30014944014
:100FA0003C4344600C79E443A4070AD0C4684FEA88
:100FB000420C06FA0CF7BC438F6807FA0CF727437C
:100FC000C7600C7904F00304022C12D1D40800EBA2
:100FD000840CDCF820405707FF0E09FA07F824EAD2
:100FE0000804D1F8108008FA07F848EA0408CCF899
:100FF000208004684FEA420C06FA0CF7BC430F79D4
:1010000007F0030707FA0CF7274307604C6814F44E
:10101000403F70D03C4C276847F4804727602468E5
:1010200022F0030704F480440094384C07EB040CCE
:10103000DCF8084897074FEA177809FA08F7BC4325
:10104000334FB84202D1002724E054E0314FB84278
:1010500001D101271EE0304FB84201D1022719E02B
:101060002E4FB84201D1032714E02D4FB84201D1D1
:1010700004270FE02B4FB84201D105270AE02A4F81
:10108000B84201D1062705E0284FB84201D1072711
:1010900000E0082707FA08F72743CCF80878DAF8C1
:1010A00000405746D1F804C09C435FEACC2C00D5E1
:1010B0001C433C60DBF800405F46D1F804C09C4311
:1010C0005FEA8C2C00D51C433C60DEF8004077467C
:1010D000D1F804C09C435FEA8C3C00D51C433C60C3
:1010E000084F083F3C68D1F804C09C435FEACC3C01
:1010F00000D51C433C60521C102AFFF42FAFBDE802
:10110000F88F0000083C01404438024000300140A4
:10111000000002400004024000080240000C0240AF
:10112000001002400014024000180240001C02405F
:101130000148806870470000140000200248816860
:101140000278114481607047140000200B4810B5EC
:10115000016841F400710160016841F4806101603F
:10116000016841F480710160032000F06FF80F20E6
:1011700000F006F800F024F8002010BD003C02400A
:1011800070B50D4D04464FF47A712878B1FBF0F03C
:101190000A490968B1FBF0F000F00CFB48B9102CCB
:1011A00007D200222146501E00F030F800206C606B
:1011B00070BD012070BD0000140000202000002040
:1011C0000A4808B5016841F480410160006800F4F4
:1011D000804000900548001F016841F08051016087
:1011E000006800F08050009008BD000044380240C4
:1011F000002809DB00F01F02012191404009800016
:1012000000F1E020C0F8001170470000F0B40E4B70
:101210001B680C46C3F30223C3F10705042D00D954
:101220000425191D072901D2002300E0DB1E012639
:1012300006FA05F1491E214099409E40761E16404F
:101240003143F0BC00F0B1BF0CED00E0064900F006
:10125000070208684FF6FF03184040EA0220034ADD
:1012600010430860704700000CED00E00000FA0534
:101270002DE9F0470E46050065D0DFF81481D8F857
:101280000000F7B200F00700B04207D288F8007003
:10129000D8F8000000F00700B04254D128683D4C57
:1012A000810712D5400703D5206840F4E050206044
:1012B0002878000703D5206840F46040206020684B
:1012C000A96820F0F000084320602878C0072DD0DE
:1012D000304968680839012812D0022813D0032841
:1012E00011D00968890700292DDA216821F003014E
:1012F00001432160FFF71CFF814641F2883A0EE06E
:1013000009688903EFE709688901ECE7FFF710FF37
:10131000A0EB0901514502D90320BDE8F087206800
:10132000696800F00C00B0EB810FEFD1D8F8001025
:10133000404601F00701B14207D90770006800F08C
:101340000700B04201D00120E7E72878400705D523
:101350002068E96820F4E0500843206028780007FE
:1013600006D52068296920F4604040EAC100206069
:1013700000F038F82168084AC1F30311515CC840F5
:101380000649086006480068FFF7FAFE0020C4E737
:10139000003C0240083802403E23000820000020A4
:1013A000180000200448054900680968044AC1F390
:1013B0008221515CC840704720000020083802405C
:1013C0004E2300080448054900680968044AC1F32F
:1013D0004231515CC840704720000020083802406C
:1013E0004E230008154810B5006810F00C02144890
:1013F00013D01449042A0FD0082A0ED10F4C241FF1
:101400002268236802F03F025B0207D52068C0F320
:101410008810A0FB010106E0084610BD2168C1F359
:101420008811A1FB00010023FEF72EFF2168C1F304
:101430000141491C4900B0FBF1F010BD08380240E1
:101440000024F40040787D012DE9F84F04006ED0AF
:101450002078DFF84C93C007A9F104054AD009F1C0
:1014600004000168C1F38101012908D00068C0F3BC
:10147000810002280AD1D9F80000400206D5286868
:10148000800337D560680028E1D033E06068B0F5AC
:10149000803F10D0B0F5A02F286810D020F4803005
:1014A0002860286820F4802028606068A8B1FFF7D1
:1014B0003FFE06460DE0286840F48030F4E740F433
:1014C00080202860F7E700BFFFF732FE801B64280A
:1014D00073D828688003F7D50CE0FFF729FE06468D
:1014E00005E000BFFFF724FE801B6428F0D82868C1
:1014F0008003F7D42078DFF8AC8280074FF0000A31
:101500003ED5A748001D016811F00C0F08D00068F7
:10151000C0F3810002280BD1D9F80000400207D4A3
:101520002868800716D5E068012800D112E033E171
:10153000E068B8B10120C8F80000FFF7F9FD0646E1
:1015400005E000BFFFF7F4FD801B0228C0D8286823
:101550008007F7D52868216920F0F80040EAC1002B
:1015600028600DE0C8F800A0FFF7E2FD064604E0A1
:10157000FFF7DEFD801B02281FD828688007F7D4FC
:101580002078000722D5864F87486169703771B18E
:1015900001210160FFF7CCFD064604E0FFF7C8FD1E
:1015A000801B022809D838688007F7D50EE0C0F8FC
:1015B00000A0FFF7BDFD064605E082E0FFF7B8FD9D
:1015C000801B02287DD838688007F7D42078400730
:1015D00068D5DFF8CCB100270BF13C0BDBF800003D
:1015E000C0000BD4DBF8001041F08051CBF80010A4
:1015F000DBF80000012700F0805000906B4E30684F
:10160000C00510D4306840F480703060FFF790FD62
:10161000009005E0FFF78CFD0099401A022850D891
:101620003068C005F6D55E4EA0686C3601280FD034
:101630000528306810D020F001003060306820F0BC
:1016400004003060A068B8B1FFF772FD00900FE0B1
:10165000306840F00100F4E740F004003060F7E744
:10166000FFF766FD0099411A41F28830814266D841
:1016700030688007F4D50EE0FFF75AFD009007E0D0
:10168000FFF756FD0099411A41F28830814256D841
:1016900030688007F4D42FB1DBF8001021F08051BE
:1016A000CBF80010A069C8B33D49091D0968C1F312
:1016B000810102294AD00228504607D0C8F86000AC
:1016C00000E03CE0FFF734FD04463BE04746C8F845
:1016D0006000FFF72DFD064605E000BFFFF728FD7F
:1016E000801B02282BD828688001F7D4D4E9070191
:1016F0000843A16A2E4A490802EB0141626A41EAA5
:101700008211084394F82C1040EA0161C9F80010D6
:1017100001203866FFF70CFD044606E03EE000BFFE
:10172000FFF706FD001B022809D828688001F7D5BD
:1017300034E000BFFFF7FCFC001B022802D90320A5
:10174000BDE8F88F28688001F4D427E00128F7D09D
:10175000D9F80000E26900F4800191421CD1226AAC
:1017600000F03F01914217D147F6C071626A014013
:10177000B1EB821F10D1A26A4FF0FF3300F4403169
:1017800003EB5202B1EB024F06D194F82C1000F09B
:101790007060B0EB016F01D00120D1E70020CFE7EE
:1017A0000438024000004742800E4742007000406B
:1017B0000000FFFF10B5401EB0F1807F01D3012073
:1017C00010BD4FF0E02460610F21601700F0EDFCC8
:1017D0000020A06107202061002010BD70477047E5
:1017E000F8B5016804460868CA684B6910F00F0F25
:1017F0004FF0000559D003F0010602F4907737430B
:1018000065D0C10705D0D10503D5216C41F0010198
:101810002164410705D5D90703D0216C41F00201AD
:101820002164810705D5D90703D0216C41F004015B
:101830002164010707D502F02001314303D0216C58
:1018400041F008012164216C00293AD0800604D5BA
:10185000900602D5204600F035FB20684069216CD7
:10186000C0F38010090700D460B3204600F0F5FAF9
:1018700020684069400621D52068143050E8001FD8
:1018800021F0400140E80012002AF5D1A06BA8B178
:101890006C490165A06BFFF7BDF9002811D0A06B62
:1018A000016D01B0BDE8F040084783060FD59306EF
:1018B0000DD52046BDE8F84000F004BB2046FFF7F8
:1018C0008EFFF8BD2046FFF78AFF2564F8BD266B22
:1018D0002023012E79D1C60677D5D60675D508689E
:1018E000486800904869400640D5A16B0868406888
:1018F0000004000CEAD0A28D8242E7D9E085C869D5
:10190000B0F5807F2DD020680C3050E8001F21F406
:10191000807140E80012002AF5D12068143050E8A8
:10192000001F21F0010140E80012002AF5D12068D3
:10193000143050E8001F21F0400140E80012002A56
:10194000F5D184F83E30256320680C3050E8001F44
:1019500021F0100140E80012002AF5D1A06BFFF73A
:1019600010F9A08DE18D401A81B229E0A08DE18DA2
:10197000401A81B2E08D0028A8D00029A6D02068A6
:101980000C3050E8002F22F4907240E80026002E20
:10199000F5D12068143050E8002F22F0010240E811
:1019A0000026002EF5D184F83E30256320680C30E7
:1019B00050E8002F22F0100240E80023002BF5D160
:1019C0002046FFF70BFFF8BDFFE705062BD51506F0
:1019D00029D594F83D002128F5D1A068B0F5805FA5
:1019E00001D12069B0B1206A411C216221680078D0
:1019F0004860E08C401E0004000CE084E3D12068C5
:101A0000C16821F08001C1602068C16841F04001D7
:101A1000C160D8E7206A0088C0F308004860206AE7
:101A2000801C2062E5E74006CDD55006CBD5CA68BC
:101A3000204622F04002CA6084F83D3000F043F9AD
:101A4000C1E70000651D000870B5040004D094F8DB
:101A50003D00002510B106E0012070BD84F83C5027
:101A6000204600F023F8242084F83D002068C16857
:101A700021F40051C160204600F084FA2068016919
:101A800021F4904101612068416921F02A014161FE
:101A90002068C16841F40051C1602564202084F8A9
:101AA0003D0084F83E00002070BD000070B586B097
:101AB000064614216846FEF77DFD244930688842B9
:101AC00041D123480025016841F48021016000686C
:101AD00000F4802005901E481038016841F0020192
:101AE00001600068694600F0020005904FF4406014
:101AF00000900220CDE90105032003900720049007
:101B00001448FFF71DFA154C134820604FF0006091
:101B1000C4E901054014C4E9035080106561C4E9BB
:101B20000650256220466562FFF756F908B1FFF7B7
:101B300026F8B463002211462720A663FFF766FB50
:101B40002720FFF755FB06B070BD0000004800409D
:101B5000403802400004024028600240A8010020F2
:101B600090F83E30202B0ED159B152B190F83C3054
:101B7000012B08D0012380F83C300023036300F0E0
:101B800087BA0120704702207047000010B5006836
:101B90001B4988422DD11B4C207846280DD1204668
:101BA000FEF7A7FC0246611C2046FEF7C1FC224658
:101BB00015A102F1D200FEF7DFFB20784D280DD1F0
:101BC0001048FEF796FC0246611C0E48FEF7B0FC7A
:101BD0000C4A0DA102F1C800FEF7CEFB21780B489C
:101BE000502907D0422904D1A178532901D1617825
:101BF000017010BDA1785329FBD16178417010BDEF
:101C000000480040CC0000202573000000000020A8
:101C1000704700002DE9F843044690F83D001F4648
:101C200016460D4620284CD1C5B1BEB194F83C00F3
:101C3000012846D0012084F83C004FF00008C4F889
:101C40004080212084F83D00FFF772FAA684814687
:101C5000E684A068B0F5805F03D004E00120BDE811
:101C6000F883206928B12E465FF0000584F83C8097
:101C70000EE00026FAE78021204600F053FAA0B9D2
:101C8000AEB116F8010B21684860E08C401EE0847C
:101C9000E08C4B464FF0000200970028EBD14FF04C
:101CA0004001204600F03EFA30B10320D7E735F876
:101CB000020BC0F30800E6E7202084F83D00002076
:101CC000CDE70220CBE77047FEE7FEE7FEE770476F
:101CD0007047FFF733BA000010B592B03021684664
:101CE000FEF768FC14210CA8FEF764FC17480024DA
:101CF000016841F080510160006800F0805011904F
:101D00001348016841F4804101600068069400F4C2
:101D10008040119002200090012003901020049038
:101D20006846FFF791FB08B172B6FEE70F20CDE9D8
:101D30000C040E940F9400210CA81094FFF798FA4D
:101D4000002801D072B6FEE712B010BD4038024044
:101D5000007000400248016841F470010160704762
:101D600088ED00E010B5806B0021C185C184FFF7CC
:101D700036FD10BD70B5846B2068406994F83D1045
:101D8000C0F3C0100025212904D118B1E5842046F4
:101D900000F08AF82068406994F83E10C0F3801083
:101DA000222904D118B1E585204600F056F8206CB0
:101DB00040F0100020642046FFF711FD70BD10B503
:101DC0000146806B09680968C9052FD40021C185C7
:101DD00001680C3151E8002F22F4807241E80023A1
:101DE000002BF5D10168143151E8002F22F00102D7
:101DF00041E80023002BF5D10168143151E8002F90
:101E000022F0400241E80023002BF5D1202180F888
:101E10003E10016B012909D101680C3151E8002FF6
:101E200022F0100241E80023002BF5D1016B0129BB
:101E300002D0FFF7ABFE10BD818DFFF7CFFC10BDC8
:101E400010B5806B016B012902D0FFF7E1FE10BDD8
:101E5000818D4908FFF7C2FC10BD01680C3151E8C3
:101E6000002F22F4907241E80023002BF5D1016885
:101E7000143151E8002F22F0010241E80023002B29
:101E8000F5D1016B012909D101680C3151E8002F0E
:101E900022F0100241E80023002BF5D1202180F828
:101EA0003E1000210163704701680C3151E8002F9A
:101EB00022F0C00241E80023002BF5D1202180F858
:101EC0003D10704708B590F83E10222901D002203D
:101ED00008BD82684FF480539A4201D1016921B153
:101EE000816A9A421BD04AB10AE00268816A52684C
:101EF000C2F308020A80816A891C08E0026972B193
:101F00000268526802F07F020A70816A491C81628D
:101F1000C18D491E0904090CC18503D019E002686E
:101F20005268F1E70168CA6822F02002CA600168BD
:101F3000CA6822F48072CA6001684A6922F001020C
:101F40004A61202180F83E10016B012903D0FFF780
:101F50001DFE002008BD0021016301680C3151E81D
:101F6000002F22F0100241E80023002BF5D1016878
:101F70000A68D20602D50A6849680091818DFFF788
:101F80002DFCE6E770B5044600680169E26821F4BB
:101F90004051114301612169A068E2690843616908
:101FA000114308432168CA6849F20C639A4302430B
:101FB000CA6020684169A26921F4407111434161FE
:101FC00031492068884202D03049884202D1FFF767
:101FD000F9F901E0FFF7E6F9E26900231921642528
:101FE0003226B2F5004F626828D0A0FB0101930FA2
:101FF0009200FEF749F90146B0FBF5F06FF01802C8
:10200000504301EB800006EB0010B0FBF5F000F050
:10201000F002B1FBF5F002EB0012B1FBF5F06FF04E
:102020001803584301EB800006EB0010B0FBF5F0FD
:1020300000F00F0021681044886070BDA0FB010112
:1020400092185B41FEF720F90146B0FBF5F0020162
:10205000B1FBF5F06FF01803584301EB800006EB7D
:10206000C000B0FBF5F000F0F80002EB4002B1FB5D
:10207000F5F0584301EB800006EBC000B0FBF5F033
:1020800000F00700D6E700000010014000140140F6
:1020900038B58162828500251346044605642220F6
:1020A00084F83E00A26B1C48D063A26B1B481064EE
:1020B000A26B1B48D064A06B0A4605652168A06B23
:1020C000091DFEF7F3FE206801684068009084F85F
:1020D0003C50206948B120680C3050E8001F41F4A2
:1020E000807140E80012002AF5D12068143050E8D1
:1020F000001F41F0010140E80012002AF5D12068DC
:10210000143050E8001F41F0400140E80012002A5E
:10211000F5D1002038BD0000BF1D0008411E000899
:10212000751D00082DE9F041984617460E460446F5
:10213000069D27E0681C25D02DB1FEF7F9FFA0EB26
:102140000800A8421ED920680C3050E8001F21F476
:10215000D07140E80012002AF5D12068143050E810
:10216000001F21F0010140E80012002AF5D12020D3
:1021700084F83D0084F83E00002084F83C000320F1
:10218000BDE8F0812068006836EA000004D0002035
:10219000B842CFD00020F3E70120F9E70148FFF76C
:1021A0001FBB000024000020FEE70907090E0028DD
:1021B00004DB00F1E02080F80014704700F00F000D
:1021C00000F1E02080F8141D7047000086B0FEF793
:1021D000BDFFFFF781FD3E480024016841F0020188
:1021E0000160016801F002010091016841F40011F1
:1021F00001600068224600F40010009021460C2087
:10220000FFF704F80C20FEF7F3FF33483149016073
:102210004FF4E131C0E901140C21C460C0E904416C
:102220008461C461FFF710FC08B172B6FEE72B4C65
:102230004FF47A7828490622A8312748FFF790FC06
:10224000607860602648FEF747F9A06024480A38A5
:10225000FEF742F9E06020782061214821A16E3824
:102260006268FEF789F807461D481EA16E38A2680D
:10227000FEF782F806461A481AA16E38E268FEF7A1
:102280007BF80546164817A16E382269FEF774F8E8
:10229000D4E9031205920295CDE90310A0683A46ED
:1022A000CDE900600C4810A144306368FEF764F883
:1022B00009484430FEF71DF9074982B243464431CC
:1022C0000548FFF7A7FC6420FEF728FEB2E70000F0
:1022D0003038024000480040240000200000002068
:1022E0009E01002025640000415025642564462598
:1022F0006425644D256425645325642564420000EB
:1023000010B500290AD00878002807D0054878447D
:10231000FEF794FB002801D0002010BD024878444D
:1023200010BD00006A000000620000004FF0407025
:10233000E1EE100A704700061016000610160000A5
:102340000000000000000102030406070809000065
:10235000000001020304000088240008000000209F
:1023600024000000C4010008AC2400082400002060
:1023700044080000E00100081001000043000000D4
:10238000F8FFFFFF00404040404040404040414196
:10239000414141404040404040404040404040403A
:1023A00040404040400502020202020202020202D4
:1023B00002020202022020202020202020202002D1
:1023C0000202020202029090909090901010101061
:1023D00010101010101010101010101010101010FD
:1023E0000202020202028888888888880808080891
:1023F000080808080808080808080808080808085D
:102400000202020240000000000000000000000084
:1024100000000000000000000000000000000000BC
:1024200000000000000000000000000000000000AC
:10243000000000000000000000000000000000009C
:10244000000000000000000000000000000000008C
:10245000000000000000000000000000000000007C
:10246000000000000000000000000000000000006C
:10247000000000000000000000000000000000005C
:10248000000000000000000000000000000000004C
:10249000E80300004600000000000000010000000A
:0C24A00010000000000000000024F40008
:040000050800018965
:00000001FF
